{
  "contractName": "Marketplace",
  "abi": [
    {
      "inputs": [],
      "stateMutability": "nonpayable",
      "type": "constructor"
    },
    {
      "anonymous": false,
      "inputs": [
        {
          "indexed": true,
          "internalType": "address",
          "name": "account",
          "type": "address"
        },
        {
          "indexed": true,
          "internalType": "address",
          "name": "operator",
          "type": "address"
        },
        {
          "indexed": false,
          "internalType": "bool",
          "name": "approved",
          "type": "bool"
        }
      ],
      "name": "ApprovalForAll",
      "type": "event"
    },
    {
      "anonymous": false,
      "inputs": [
        {
          "indexed": true,
          "internalType": "uint256",
          "name": "tokenId",
          "type": "uint256"
        },
        {
          "indexed": true,
          "internalType": "address",
          "name": "owner",
          "type": "address"
        },
        {
          "indexed": true,
          "internalType": "address",
          "name": "nftAddress",
          "type": "address"
        },
        {
          "indexed": false,
          "internalType": "uint256",
          "name": "quantity",
          "type": "uint256"
        }
      ],
      "name": "Minted",
      "type": "event"
    },
    {
      "anonymous": false,
      "inputs": [
        {
          "indexed": true,
          "internalType": "address",
          "name": "operator",
          "type": "address"
        },
        {
          "indexed": true,
          "internalType": "address",
          "name": "from",
          "type": "address"
        },
        {
          "indexed": true,
          "internalType": "address",
          "name": "to",
          "type": "address"
        },
        {
          "indexed": false,
          "internalType": "uint256[]",
          "name": "ids",
          "type": "uint256[]"
        },
        {
          "indexed": false,
          "internalType": "uint256[]",
          "name": "values",
          "type": "uint256[]"
        }
      ],
      "name": "TransferBatch",
      "type": "event"
    },
    {
      "anonymous": false,
      "inputs": [
        {
          "indexed": true,
          "internalType": "address",
          "name": "operator",
          "type": "address"
        },
        {
          "indexed": true,
          "internalType": "address",
          "name": "from",
          "type": "address"
        },
        {
          "indexed": true,
          "internalType": "address",
          "name": "to",
          "type": "address"
        },
        {
          "indexed": false,
          "internalType": "uint256",
          "name": "id",
          "type": "uint256"
        },
        {
          "indexed": false,
          "internalType": "uint256",
          "name": "value",
          "type": "uint256"
        }
      ],
      "name": "TransferSingle",
      "type": "event"
    },
    {
      "anonymous": false,
      "inputs": [
        {
          "indexed": false,
          "internalType": "string",
          "name": "value",
          "type": "string"
        },
        {
          "indexed": true,
          "internalType": "uint256",
          "name": "id",
          "type": "uint256"
        }
      ],
      "name": "URI",
      "type": "event"
    },
    {
      "inputs": [],
      "name": "Paper",
      "outputs": [
        {
          "internalType": "uint256",
          "name": "",
          "type": "uint256"
        }
      ],
      "stateMutability": "view",
      "type": "function",
      "constant": true
    },
    {
      "inputs": [],
      "name": "Rock",
      "outputs": [
        {
          "internalType": "uint256",
          "name": "",
          "type": "uint256"
        }
      ],
      "stateMutability": "view",
      "type": "function",
      "constant": true
    },
    {
      "inputs": [],
      "name": "Metaedu",
      "outputs": [
        {
          "internalType": "uint256",
          "name": "",
          "type": "uint256"
        }
      ],
      "stateMutability": "view",
      "type": "function",
      "constant": true
    },
    {
      "inputs": [
        {
          "internalType": "address",
          "name": "account",
          "type": "address"
        },
        {
          "internalType": "uint256",
          "name": "id",
          "type": "uint256"
        }
      ],
      "name": "balanceOf",
      "outputs": [
        {
          "internalType": "uint256",
          "name": "",
          "type": "uint256"
        }
      ],
      "stateMutability": "view",
      "type": "function",
      "constant": true
    },
    {
      "inputs": [
        {
          "internalType": "address[]",
          "name": "accounts",
          "type": "address[]"
        },
        {
          "internalType": "uint256[]",
          "name": "ids",
          "type": "uint256[]"
        }
      ],
      "name": "balanceOfBatch",
      "outputs": [
        {
          "internalType": "uint256[]",
          "name": "",
          "type": "uint256[]"
        }
      ],
      "stateMutability": "view",
      "type": "function",
      "constant": true
    },
    {
      "inputs": [
        {
          "internalType": "address",
          "name": "account",
          "type": "address"
        },
        {
          "internalType": "address",
          "name": "operator",
          "type": "address"
        }
      ],
      "name": "isApprovedForAll",
      "outputs": [
        {
          "internalType": "bool",
          "name": "",
          "type": "bool"
        }
      ],
      "stateMutability": "view",
      "type": "function",
      "constant": true
    },
    {
      "inputs": [],
      "name": "marketplace",
      "outputs": [
        {
          "internalType": "address",
          "name": "",
          "type": "address"
        }
      ],
      "stateMutability": "view",
      "type": "function",
      "constant": true
    },
    {
      "inputs": [
        {
          "internalType": "address",
          "name": "from",
          "type": "address"
        },
        {
          "internalType": "address",
          "name": "to",
          "type": "address"
        },
        {
          "internalType": "uint256[]",
          "name": "ids",
          "type": "uint256[]"
        },
        {
          "internalType": "uint256[]",
          "name": "amounts",
          "type": "uint256[]"
        },
        {
          "internalType": "bytes",
          "name": "data",
          "type": "bytes"
        }
      ],
      "name": "safeBatchTransferFrom",
      "outputs": [],
      "stateMutability": "nonpayable",
      "type": "function"
    },
    {
      "inputs": [
        {
          "internalType": "address",
          "name": "from",
          "type": "address"
        },
        {
          "internalType": "address",
          "name": "to",
          "type": "address"
        },
        {
          "internalType": "uint256",
          "name": "id",
          "type": "uint256"
        },
        {
          "internalType": "uint256",
          "name": "amount",
          "type": "uint256"
        },
        {
          "internalType": "bytes",
          "name": "data",
          "type": "bytes"
        }
      ],
      "name": "safeTransferFrom",
      "outputs": [],
      "stateMutability": "nonpayable",
      "type": "function"
    },
    {
      "inputs": [
        {
          "internalType": "address",
          "name": "operator",
          "type": "address"
        },
        {
          "internalType": "bool",
          "name": "approved",
          "type": "bool"
        }
      ],
      "name": "setApprovalForAll",
      "outputs": [],
      "stateMutability": "nonpayable",
      "type": "function"
    },
    {
      "inputs": [
        {
          "internalType": "bytes4",
          "name": "interfaceId",
          "type": "bytes4"
        }
      ],
      "name": "supportsInterface",
      "outputs": [
        {
          "internalType": "bool",
          "name": "",
          "type": "bool"
        }
      ],
      "stateMutability": "view",
      "type": "function",
      "constant": true
    },
    {
      "inputs": [
        {
          "internalType": "address",
          "name": "account",
          "type": "address"
        },
        {
          "internalType": "uint256",
          "name": "quantity",
          "type": "uint256"
        }
      ],
      "name": "mint",
      "outputs": [],
      "stateMutability": "nonpayable",
      "type": "function"
    },
    {
      "inputs": [
        {
          "internalType": "uint256",
          "name": "_tokenid",
          "type": "uint256"
        }
      ],
      "name": "uri",
      "outputs": [
        {
          "internalType": "string",
          "name": "",
          "type": "string"
        }
      ],
      "stateMutability": "pure",
      "type": "function",
      "constant": true
    }
  ],
  "bytecode": "0x60806040523480156200001157600080fd5b506040518060800160405280605a815260200162003a9c605a91396200003d81620000b260201b60201c565b50620000623360018060405180602001604052806000815250620000c760201b60201c565b62000087336002600160405180602001604052806000815250620000c760201b60201c565b620000ac336003600160405180602001604052806000815250620000c760201b60201c565b62000e82565b8060029081620000c39190620007a2565b5050565b600073ffffffffffffffffffffffffffffffffffffffff168473ffffffffffffffffffffffffffffffffffffffff160362000139576040517f08c379a0000000000000000000000000000000000000000000000000000000008152600401620001309062000910565b60405180910390fd5b60006200014b6200028b60201b60201c565b9050620001848160008762000166886200029360201b60201c565b62000177886200029360201b60201c565b876200031460201b60201c565b8260008086815260200190815260200160002060008773ffffffffffffffffffffffffffffffffffffffff1673ffffffffffffffffffffffffffffffffffffffff1681526020019081526020016000206000828254620001e5919062000961565b925050819055508473ffffffffffffffffffffffffffffffffffffffff16600073ffffffffffffffffffffffffffffffffffffffff168273ffffffffffffffffffffffffffffffffffffffff167fc3d58168c5ae7397731d063d5bbf3d657854427343f4c083240f7aacaa2d0f62878760405162000265929190620009ad565b60405180910390a462000284816000878787876200031c60201b60201c565b5050505050565b600033905090565b60606000600167ffffffffffffffff811115620002b557620002b462000533565b5b604051908082528060200260200182016040528015620002e45781602001602082028036833780820191505090505b5090508281600081518110620002ff57620002fe620009da565b5b60200260200101818152505080915050919050565b505050505050565b620003488473ffffffffffffffffffffffffffffffffffffffff166200051560201b620009c81760201c565b156200050d578373ffffffffffffffffffffffffffffffffffffffff1663f23a6e6187878686866040518663ffffffff1660e01b81526004016200039195949392919062000ae8565b6020604051808303816000875af1925050508015620003d057506040513d601f19601f82011682018060405250810190620003cd919062000bb8565b60015b6200048157620003df62000bf7565b806308c379a003620004425750620003f662000c52565b8062000403575062000444565b806040517f08c379a000000000000000000000000000000000000000000000000000000000815260040162000439919062000d2e565b60405180910390fd5b505b6040517f08c379a0000000000000000000000000000000000000000000000000000000008152600401620004789062000dc8565b60405180910390fd5b63f23a6e6160e01b7bffffffffffffffffffffffffffffffffffffffffffffffffffffffff1916817bffffffffffffffffffffffffffffffffffffffffffffffffffffffff1916146200050b576040517f08c379a0000000000000000000000000000000000000000000000000000000008152600401620005029062000e60565b60405180910390fd5b505b505050505050565b600080823b905060008111915050919050565b600081519050919050565b7f4e487b7100000000000000000000000000000000000000000000000000000000600052604160045260246000fd5b7f4e487b7100000000000000000000000000000000000000000000000000000000600052602260045260246000fd5b60006002820490506001821680620005aa57607f821691505b602082108103620005c057620005bf62000562565b5b50919050565b60008190508160005260206000209050919050565b60006020601f8301049050919050565b600082821b905092915050565b6000600883026200062a7fffffffffffffffffffffffffffffffffffffffffffffffffffffffffffffffff82620005eb565b620006368683620005eb565b95508019841693508086168417925050509392505050565b6000819050919050565b6000819050919050565b6000620006836200067d62000677846200064e565b62000658565b6200064e565b9050919050565b6000819050919050565b6200069f8362000662565b620006b7620006ae826200068a565b848454620005f8565b825550505050565b600090565b620006ce620006bf565b620006db81848462000694565b505050565b5b818110156200070357620006f7600082620006c4565b600181019050620006e1565b5050565b601f82111562000752576200071c81620005c6565b6200072784620005db565b8101602085101562000737578190505b6200074f6200074685620005db565b830182620006e0565b50505b505050565b600082821c905092915050565b6000620007776000198460080262000757565b1980831691505092915050565b600062000792838362000764565b9150826002028217905092915050565b620007ad8262000528565b67ffffffffffffffff811115620007c957620007c862000533565b5b620007d5825462000591565b620007e282828562000707565b600060209050601f8311600181146200081a576000841562000805578287015190505b62000811858262000784565b86555062000881565b601f1984166200082a86620005c6565b60005b8281101562000854578489015182556001820191506020850194506020810190506200082d565b8683101562000874578489015162000870601f89168262000764565b8355505b6001600288020188555050505b505050505050565b600082825260208201905092915050565b7f455243313135353a206d696e7420746f20746865207a65726f2061646472657360008201527f7300000000000000000000000000000000000000000000000000000000000000602082015250565b6000620008f860218362000889565b915062000905826200089a565b604082019050919050565b600060208201905081810360008301526200092b81620008e9565b9050919050565b7f4e487b7100000000000000000000000000000000000000000000000000000000600052601160045260246000fd5b60006200096e826200064e565b91506200097b836200064e565b925082820190508082111562000996576200099562000932565b5b92915050565b620009a7816200064e565b82525050565b6000604082019050620009c460008301856200099c565b620009d360208301846200099c565b9392505050565b7f4e487b7100000000000000000000000000000000000000000000000000000000600052603260045260246000fd5b600073ffffffffffffffffffffffffffffffffffffffff82169050919050565b600062000a368262000a09565b9050919050565b62000a488162000a29565b82525050565b600081519050919050565b600082825260208201905092915050565b60005b8381101562000a8a57808201518184015260208101905062000a6d565b60008484015250505050565b6000601f19601f8301169050919050565b600062000ab48262000a4e565b62000ac0818562000a59565b935062000ad281856020860162000a6a565b62000add8162000a96565b840191505092915050565b600060a08201905062000aff600083018862000a3d565b62000b0e602083018762000a3d565b62000b1d60408301866200099c565b62000b2c60608301856200099c565b818103608083015262000b40818462000aa7565b90509695505050505050565b6000604051905090565b600080fd5b60007fffffffff0000000000000000000000000000000000000000000000000000000082169050919050565b62000b928162000b5b565b811462000b9e57600080fd5b50565b60008151905062000bb28162000b87565b92915050565b60006020828403121562000bd15762000bd062000b56565b5b600062000be18482850162000ba1565b91505092915050565b60008160e01c9050919050565b600060033d111562000c195760046000803e62000c1660005162000bea565b90505b90565b62000c278262000a96565b810181811067ffffffffffffffff8211171562000c495762000c4862000533565b5b80604052505050565b600060443d1062000cea5762000c6762000b4c565b60043d036004823e80513d602482011167ffffffffffffffff8211171562000c9157505062000cea565b808201805167ffffffffffffffff81111562000cb1575050505062000cea565b80602083010160043d03850181111562000cd057505050505062000cea565b62000ce18260200185018662000c1c565b82955050505050505b90565b600062000cfa8262000528565b62000d06818562000889565b935062000d1881856020860162000a6a565b62000d238162000a96565b840191505092915050565b6000602082019050818103600083015262000d4a818462000ced565b905092915050565b7f455243313135353a207472616e7366657220746f206e6f6e204552433131353560008201527f526563656976657220696d706c656d656e746572000000000000000000000000602082015250565b600062000db060348362000889565b915062000dbd8262000d52565b604082019050919050565b6000602082019050818103600083015262000de38162000da1565b9050919050565b7f455243313135353a204552433131353552656365697665722072656a6563746560008201527f6420746f6b656e73000000000000000000000000000000000000000000000000602082015250565b600062000e4860288362000889565b915062000e558262000dea565b604082019050919050565b6000602082019050818103600083015262000e7b8162000e39565b9050919050565b612c0a8062000e926000396000f3fe608060405234801561001057600080fd5b50600436106100ce5760003560e01c80634e1273f41161008c578063abc8c7af11610066578063abc8c7af14610223578063af769eff14610241578063e985e9c51461025f578063f242432a1461028f576100ce565b80634e1273f4146101b957806360689557146101e9578063a22cb46514610207576100ce565b8062fdd58e146100d357806301ffc9a7146101035780630e89341c1461013357806325ea269e146101635780632eb2c2d61461018157806340c10f191461019d575b600080fd5b6100ed60048036038101906100e891906117d2565b6102ab565b6040516100fa9190611821565b60405180910390f35b61011d60048036038101906101189190611894565b610373565b60405161012a91906118dc565b60405180910390f35b61014d600480360381019061014891906118f7565b610455565b60405161015a91906119b4565b60405180910390f35b61016b610486565b6040516101789190611821565b60405180910390f35b61019b60048036038101906101969190611bd3565b61048b565b005b6101b760048036038101906101b291906117d2565b61052c565b005b6101d360048036038101906101ce9190611d65565b6105ca565b6040516101e09190611e9b565b60405180910390f35b6101f16106e3565b6040516101fe9190611821565b60405180910390f35b610221600480360381019061021c9190611ee9565b6106e8565b005b61022b610868565b6040516102389190611f38565b60405180910390f35b61024961088e565b6040516102569190611821565b60405180910390f35b61027960048036038101906102749190611f53565b610893565b60405161028691906118dc565b60405180910390f35b6102a960048036038101906102a49190611f93565b610927565b005b60008073ffffffffffffffffffffffffffffffffffffffff168373ffffffffffffffffffffffffffffffffffffffff160361031b576040517f08c379a00000000000000000000000000000000000000000000000000000000081526004016103129061209c565b60405180910390fd5b60008083815260200190815260200160002060008473ffffffffffffffffffffffffffffffffffffffff1673ffffffffffffffffffffffffffffffffffffffff16815260200190815260200160002054905092915050565b60007fd9b67a26000000000000000000000000000000000000000000000000000000007bffffffffffffffffffffffffffffffffffffffffffffffffffffffff1916827bffffffffffffffffffffffffffffffffffffffffffffffffffffffff1916148061043e57507f0e89341c000000000000000000000000000000000000000000000000000000007bffffffffffffffffffffffffffffffffffffffffffffffffffffffff1916827bffffffffffffffffffffffffffffffffffffffffffffffffffffffff1916145b8061044e575061044d826109db565b5b9050919050565b606061046082610a45565b60405160200161047091906121dc565b6040516020818303038152906040529050919050565b600381565b610493610ba5565b73ffffffffffffffffffffffffffffffffffffffff168573ffffffffffffffffffffffffffffffffffffffff1614806104d957506104d8856104d3610ba5565b610893565b5b610518576040517f08c379a000000000000000000000000000000000000000000000000000000000815260040161050f9061227b565b60405180910390fd5b6105258585858585610bad565b5050505050565b6105366003610ec0565b60006105426003610ed6565b905061055f83828460405180602001604052806000815250610ee4565b3073ffffffffffffffffffffffffffffffffffffffff168373ffffffffffffffffffffffffffffffffffffffff16827feea463cdf54761f30159ac8e70945d6f7b091f6ad1b4ee6ef3fa3770f7667559856040516105bd9190611821565b60405180910390a4505050565b60608151835114610610576040517f08c379a00000000000000000000000000000000000000000000000000000000081526004016106079061230d565b60405180910390fd5b6000835167ffffffffffffffff81111561062d5761062c6119db565b5b60405190808252806020026020018201604052801561065b5781602001602082028036833780820191505090505b50905060005b84518110156106d8576106a88582815181106106805761067f61232d565b5b602002602001015185838151811061069b5761069a61232d565b5b60200260200101516102ab565b8282815181106106bb576106ba61232d565b5b602002602001018181525050806106d19061238b565b9050610661565b508091505092915050565b600181565b8173ffffffffffffffffffffffffffffffffffffffff16610707610ba5565b73ffffffffffffffffffffffffffffffffffffffff160361075d576040517f08c379a000000000000000000000000000000000000000000000000000000000815260040161075490612445565b60405180910390fd5b806001600061076a610ba5565b73ffffffffffffffffffffffffffffffffffffffff1673ffffffffffffffffffffffffffffffffffffffff16815260200190815260200160002060008473ffffffffffffffffffffffffffffffffffffffff1673ffffffffffffffffffffffffffffffffffffffff16815260200190815260200160002060006101000a81548160ff0219169083151502179055508173ffffffffffffffffffffffffffffffffffffffff16610817610ba5565b73ffffffffffffffffffffffffffffffffffffffff167f17307eab39ab6107e8899845ad3d59bd9653f200f220920489ca2b5937696c318360405161085c91906118dc565b60405180910390a35050565b600460009054906101000a900473ffffffffffffffffffffffffffffffffffffffff1681565b600281565b6000600160008473ffffffffffffffffffffffffffffffffffffffff1673ffffffffffffffffffffffffffffffffffffffff16815260200190815260200160002060008373ffffffffffffffffffffffffffffffffffffffff1673ffffffffffffffffffffffffffffffffffffffff16815260200190815260200160002060009054906101000a900460ff16905092915050565b61092f610ba5565b73ffffffffffffffffffffffffffffffffffffffff168573ffffffffffffffffffffffffffffffffffffffff16148061097557506109748561096f610ba5565b610893565b5b6109b4576040517f08c379a00000000000000000000000000000000000000000000000000000000081526004016109ab906124d7565b60405180910390fd5b6109c18585858585611079565b5050505050565b600080823b905060008111915050919050565b60007f01ffc9a7000000000000000000000000000000000000000000000000000000007bffffffffffffffffffffffffffffffffffffffffffffffffffffffff1916827bffffffffffffffffffffffffffffffffffffffffffffffffffffffff1916149050919050565b606060008203610a8c576040518060400160405280600181526020017f30000000000000000000000000000000000000000000000000000000000000008152509050610ba0565b600082905060005b60008214610abe578080610aa79061238b565b915050600a82610ab79190612526565b9150610a94565b60008167ffffffffffffffff811115610ada57610ad96119db565b5b6040519080825280601f01601f191660200182016040528015610b0c5781602001600182028036833780820191505090505b5090505b60008514610b9957600182610b259190612557565b9150600a85610b34919061258b565b6030610b4091906125bc565b60f81b818381518110610b5657610b5561232d565b5b60200101907effffffffffffffffffffffffffffffffffffffffffffffffffffffffffffff1916908160001a905350600a85610b929190612526565b9450610b10565b8093505050505b919050565b600033905090565b8151835114610bf1576040517f08c379a0000000000000000000000000000000000000000000000000000000008152600401610be890612662565b60405180910390fd5b600073ffffffffffffffffffffffffffffffffffffffff168473ffffffffffffffffffffffffffffffffffffffff1603610c60576040517f08c379a0000000000000000000000000000000000000000000000000000000008152600401610c57906126f4565b60405180910390fd5b6000610c6a610ba5565b9050610c7a8187878787876112fa565b60005b8451811015610e2b576000858281518110610c9b57610c9a61232d565b5b602002602001015190506000858381518110610cba57610cb961232d565b5b60200260200101519050600080600084815260200190815260200160002060008b73ffffffffffffffffffffffffffffffffffffffff1673ffffffffffffffffffffffffffffffffffffffff16815260200190815260200160002054905081811015610d5b576040517f08c379a0000000000000000000000000000000000000000000000000000000008152600401610d5290612786565b60405180910390fd5b81810360008085815260200190815260200160002060008c73ffffffffffffffffffffffffffffffffffffffff1673ffffffffffffffffffffffffffffffffffffffff168152602001908152602001600020819055508160008085815260200190815260200160002060008b73ffffffffffffffffffffffffffffffffffffffff1673ffffffffffffffffffffffffffffffffffffffff1681526020019081526020016000206000828254610e1091906125bc565b9250508190555050505080610e249061238b565b9050610c7d565b508473ffffffffffffffffffffffffffffffffffffffff168673ffffffffffffffffffffffffffffffffffffffff168273ffffffffffffffffffffffffffffffffffffffff167f4a39dc06d4c0dbc64b70af90fd698a233a518aa5d07e595d983b8c0526c8f7fb8787604051610ea29291906127a6565b60405180910390a4610eb8818787878787611302565b505050505050565b6001816000016000828254019250508190555050565b600081600001549050919050565b600073ffffffffffffffffffffffffffffffffffffffff168473ffffffffffffffffffffffffffffffffffffffff1603610f53576040517f08c379a0000000000000000000000000000000000000000000000000000000008152600401610f4a9061284f565b60405180910390fd5b6000610f5d610ba5565b9050610f7e81600087610f6f886114d9565b610f78886114d9565b876112fa565b8260008086815260200190815260200160002060008773ffffffffffffffffffffffffffffffffffffffff1673ffffffffffffffffffffffffffffffffffffffff1681526020019081526020016000206000828254610fdd91906125bc565b925050819055508473ffffffffffffffffffffffffffffffffffffffff16600073ffffffffffffffffffffffffffffffffffffffff168273ffffffffffffffffffffffffffffffffffffffff167fc3d58168c5ae7397731d063d5bbf3d657854427343f4c083240f7aacaa2d0f62878760405161105b92919061286f565b60405180910390a461107281600087878787611553565b5050505050565b600073ffffffffffffffffffffffffffffffffffffffff168473ffffffffffffffffffffffffffffffffffffffff16036110e8576040517f08c379a00000000000000000000000000000000000000000000000000000000081526004016110df906126f4565b60405180910390fd5b60006110f2610ba5565b9050611112818787611103886114d9565b61110c886114d9565b876112fa565b600080600086815260200190815260200160002060008873ffffffffffffffffffffffffffffffffffffffff1673ffffffffffffffffffffffffffffffffffffffff168152602001908152602001600020549050838110156111a9576040517f08c379a00000000000000000000000000000000000000000000000000000000081526004016111a090612786565b60405180910390fd5b83810360008087815260200190815260200160002060008973ffffffffffffffffffffffffffffffffffffffff1673ffffffffffffffffffffffffffffffffffffffff168152602001908152602001600020819055508360008087815260200190815260200160002060008873ffffffffffffffffffffffffffffffffffffffff1673ffffffffffffffffffffffffffffffffffffffff168152602001908152602001600020600082825461125e91906125bc565b925050819055508573ffffffffffffffffffffffffffffffffffffffff168773ffffffffffffffffffffffffffffffffffffffff168373ffffffffffffffffffffffffffffffffffffffff167fc3d58168c5ae7397731d063d5bbf3d657854427343f4c083240f7aacaa2d0f6288886040516112db92919061286f565b60405180910390a46112f1828888888888611553565b50505050505050565b505050505050565b6113218473ffffffffffffffffffffffffffffffffffffffff166109c8565b156114d1578373ffffffffffffffffffffffffffffffffffffffff1663bc197c8187878686866040518663ffffffff1660e01b81526004016113679594939291906128ed565b6020604051808303816000875af19250505080156113a357506040513d601f19601f820116820180604052508101906113a0919061296a565b60015b611448576113af6129a4565b806308c379a00361140b57506113c36129c6565b806113ce575061140d565b806040517f08c379a000000000000000000000000000000000000000000000000000000000815260040161140291906119b4565b60405180910390fd5b505b6040517f08c379a000000000000000000000000000000000000000000000000000000000815260040161143f90612ac8565b60405180910390fd5b63bc197c8160e01b7bffffffffffffffffffffffffffffffffffffffffffffffffffffffff1916817bffffffffffffffffffffffffffffffffffffffffffffffffffffffff1916146114cf576040517f08c379a00000000000000000000000000000000000000000000000000000000081526004016114c690612b5a565b60405180910390fd5b505b505050505050565b60606000600167ffffffffffffffff8111156114f8576114f76119db565b5b6040519080825280602002602001820160405280156115265781602001602082028036833780820191505090505b509050828160008151811061153e5761153d61232d565b5b60200260200101818152505080915050919050565b6115728473ffffffffffffffffffffffffffffffffffffffff166109c8565b15611722578373ffffffffffffffffffffffffffffffffffffffff1663f23a6e6187878686866040518663ffffffff1660e01b81526004016115b8959493929190612b7a565b6020604051808303816000875af19250505080156115f457506040513d601f19601f820116820180604052508101906115f1919061296a565b60015b611699576116006129a4565b806308c379a00361165c57506116146129c6565b8061161f575061165e565b806040517f08c379a000000000000000000000000000000000000000000000000000000000815260040161165391906119b4565b60405180910390fd5b505b6040517f08c379a000000000000000000000000000000000000000000000000000000000815260040161169090612ac8565b60405180910390fd5b63f23a6e6160e01b7bffffffffffffffffffffffffffffffffffffffffffffffffffffffff1916817bffffffffffffffffffffffffffffffffffffffffffffffffffffffff191614611720576040517f08c379a000000000000000000000000000000000000000000000000000000000815260040161171790612b5a565b60405180910390fd5b505b505050505050565b6000604051905090565b600080fd5b600080fd5b600073ffffffffffffffffffffffffffffffffffffffff82169050919050565b60006117698261173e565b9050919050565b6117798161175e565b811461178457600080fd5b50565b60008135905061179681611770565b92915050565b6000819050919050565b6117af8161179c565b81146117ba57600080fd5b50565b6000813590506117cc816117a6565b92915050565b600080604083850312156117e9576117e8611734565b5b60006117f785828601611787565b9250506020611808858286016117bd565b9150509250929050565b61181b8161179c565b82525050565b60006020820190506118366000830184611812565b92915050565b60007fffffffff0000000000000000000000000000000000000000000000000000000082169050919050565b6118718161183c565b811461187c57600080fd5b50565b60008135905061188e81611868565b92915050565b6000602082840312156118aa576118a9611734565b5b60006118b88482850161187f565b91505092915050565b60008115159050919050565b6118d6816118c1565b82525050565b60006020820190506118f160008301846118cd565b92915050565b60006020828403121561190d5761190c611734565b5b600061191b848285016117bd565b91505092915050565b600081519050919050565b600082825260208201905092915050565b60005b8381101561195e578082015181840152602081019050611943565b60008484015250505050565b6000601f19601f8301169050919050565b600061198682611924565b611990818561192f565b93506119a0818560208601611940565b6119a98161196a565b840191505092915050565b600060208201905081810360008301526119ce818461197b565b905092915050565b600080fd5b7f4e487b7100000000000000000000000000000000000000000000000000000000600052604160045260246000fd5b611a138261196a565b810181811067ffffffffffffffff82111715611a3257611a316119db565b5b80604052505050565b6000611a4561172a565b9050611a518282611a0a565b919050565b600067ffffffffffffffff821115611a7157611a706119db565b5b602082029050602081019050919050565b600080fd5b6000611a9a611a9584611a56565b611a3b565b90508083825260208201905060208402830185811115611abd57611abc611a82565b5b835b81811015611ae65780611ad288826117bd565b845260208401935050602081019050611abf565b5050509392505050565b600082601f830112611b0557611b046119d6565b5b8135611b15848260208601611a87565b91505092915050565b600080fd5b600067ffffffffffffffff821115611b3e57611b3d6119db565b5b611b478261196a565b9050602081019050919050565b82818337600083830152505050565b6000611b76611b7184611b23565b611a3b565b905082815260208101848484011115611b9257611b91611b1e565b5b611b9d848285611b54565b509392505050565b600082601f830112611bba57611bb96119d6565b5b8135611bca848260208601611b63565b91505092915050565b600080600080600060a08688031215611bef57611bee611734565b5b6000611bfd88828901611787565b9550506020611c0e88828901611787565b945050604086013567ffffffffffffffff811115611c2f57611c2e611739565b5b611c3b88828901611af0565b935050606086013567ffffffffffffffff811115611c5c57611c5b611739565b5b611c6888828901611af0565b925050608086013567ffffffffffffffff811115611c8957611c88611739565b5b611c9588828901611ba5565b9150509295509295909350565b600067ffffffffffffffff821115611cbd57611cbc6119db565b5b602082029050602081019050919050565b6000611ce1611cdc84611ca2565b611a3b565b90508083825260208201905060208402830185811115611d0457611d03611a82565b5b835b81811015611d2d5780611d198882611787565b845260208401935050602081019050611d06565b5050509392505050565b600082601f830112611d4c57611d4b6119d6565b5b8135611d5c848260208601611cce565b91505092915050565b60008060408385031215611d7c57611d7b611734565b5b600083013567ffffffffffffffff811115611d9a57611d99611739565b5b611da685828601611d37565b925050602083013567ffffffffffffffff811115611dc757611dc6611739565b5b611dd385828601611af0565b9150509250929050565b600081519050919050565b600082825260208201905092915050565b6000819050602082019050919050565b611e128161179c565b82525050565b6000611e248383611e09565b60208301905092915050565b6000602082019050919050565b6000611e4882611ddd565b611e528185611de8565b9350611e5d83611df9565b8060005b83811015611e8e578151611e758882611e18565b9750611e8083611e30565b925050600181019050611e61565b5085935050505092915050565b60006020820190508181036000830152611eb58184611e3d565b905092915050565b611ec6816118c1565b8114611ed157600080fd5b50565b600081359050611ee381611ebd565b92915050565b60008060408385031215611f0057611eff611734565b5b6000611f0e85828601611787565b9250506020611f1f85828601611ed4565b9150509250929050565b611f328161175e565b82525050565b6000602082019050611f4d6000830184611f29565b92915050565b60008060408385031215611f6a57611f69611734565b5b6000611f7885828601611787565b9250506020611f8985828601611787565b9150509250929050565b600080600080600060a08688031215611faf57611fae611734565b5b6000611fbd88828901611787565b9550506020611fce88828901611787565b9450506040611fdf888289016117bd565b9350506060611ff0888289016117bd565b925050608086013567ffffffffffffffff81111561201157612010611739565b5b61201d88828901611ba5565b9150509295509295909350565b7f455243313135353a2062616c616e636520717565727920666f7220746865207a60008201527f65726f2061646472657373000000000000000000000000000000000000000000602082015250565b6000612086602b8361192f565b91506120918261202a565b604082019050919050565b600060208201905081810360008301526120b581612079565b9050919050565b600081905092915050565b7f68747470733a2f2f697066732e696f2f697066732f62616679626569686a6a6b60008201527f77647278786a6e757765766c7174716d683369656763616463333273696f347760208201527f6d6f37627632676266333471733334612f000000000000000000000000000000604082015250565b60006121496051836120bc565b9150612154826120c7565b605182019050919050565b600061216a82611924565b61217481856120bc565b9350612184818560208601611940565b80840191505092915050565b7f2e6a736f6e000000000000000000000000000000000000000000000000000000600082015250565b60006121c66005836120bc565b91506121d182612190565b600582019050919050565b60006121e78261213c565b91506121f3828461215f565b91506121fe826121b9565b915081905092915050565b7f455243313135353a207472616e736665722063616c6c6572206973206e6f742060008201527f6f776e6572206e6f7220617070726f7665640000000000000000000000000000602082015250565b600061226560328361192f565b915061227082612209565b604082019050919050565b6000602082019050818103600083015261229481612258565b9050919050565b7f455243313135353a206163636f756e747320616e6420696473206c656e67746860008201527f206d69736d617463680000000000000000000000000000000000000000000000602082015250565b60006122f760298361192f565b91506123028261229b565b604082019050919050565b60006020820190508181036000830152612326816122ea565b9050919050565b7f4e487b7100000000000000000000000000000000000000000000000000000000600052603260045260246000fd5b7f4e487b7100000000000000000000000000000000000000000000000000000000600052601160045260246000fd5b60006123968261179c565b91507fffffffffffffffffffffffffffffffffffffffffffffffffffffffffffffffff82036123c8576123c761235c565b5b600182019050919050565b7f455243313135353a2073657474696e6720617070726f76616c2073746174757360008201527f20666f722073656c660000000000000000000000000000000000000000000000602082015250565b600061242f60298361192f565b915061243a826123d3565b604082019050919050565b6000602082019050818103600083015261245e81612422565b9050919050565b7f455243313135353a2063616c6c6572206973206e6f74206f776e6572206e6f7260008201527f20617070726f7665640000000000000000000000000000000000000000000000602082015250565b60006124c160298361192f565b91506124cc82612465565b604082019050919050565b600060208201905081810360008301526124f0816124b4565b9050919050565b7f4e487b7100000000000000000000000000000000000000000000000000000000600052601260045260246000fd5b60006125318261179c565b915061253c8361179c565b92508261254c5761254b6124f7565b5b828204905092915050565b60006125628261179c565b915061256d8361179c565b92508282039050818111156125855761258461235c565b5b92915050565b60006125968261179c565b91506125a18361179c565b9250826125b1576125b06124f7565b5b828206905092915050565b60006125c78261179c565b91506125d28361179c565b92508282019050808211156125ea576125e961235c565b5b92915050565b7f455243313135353a2069647320616e6420616d6f756e7473206c656e6774682060008201527f6d69736d61746368000000000000000000000000000000000000000000000000602082015250565b600061264c60288361192f565b9150612657826125f0565b604082019050919050565b6000602082019050818103600083015261267b8161263f565b9050919050565b7f455243313135353a207472616e7366657220746f20746865207a65726f20616460008201527f6472657373000000000000000000000000000000000000000000000000000000602082015250565b60006126de60258361192f565b91506126e982612682565b604082019050919050565b6000602082019050818103600083015261270d816126d1565b9050919050565b7f455243313135353a20696e73756666696369656e742062616c616e636520666f60008201527f72207472616e7366657200000000000000000000000000000000000000000000602082015250565b6000612770602a8361192f565b915061277b82612714565b604082019050919050565b6000602082019050818103600083015261279f81612763565b9050919050565b600060408201905081810360008301526127c08185611e3d565b905081810360208301526127d48184611e3d565b90509392505050565b7f455243313135353a206d696e7420746f20746865207a65726f2061646472657360008201527f7300000000000000000000000000000000000000000000000000000000000000602082015250565b600061283960218361192f565b9150612844826127dd565b604082019050919050565b600060208201905081810360008301526128688161282c565b9050919050565b60006040820190506128846000830185611812565b6128916020830184611812565b9392505050565b600081519050919050565b600082825260208201905092915050565b60006128bf82612898565b6128c981856128a3565b93506128d9818560208601611940565b6128e28161196a565b840191505092915050565b600060a0820190506129026000830188611f29565b61290f6020830187611f29565b81810360408301526129218186611e3d565b905081810360608301526129358185611e3d565b9050818103608083015261294981846128b4565b90509695505050505050565b60008151905061296481611868565b92915050565b6000602082840312156129805761297f611734565b5b600061298e84828501612955565b91505092915050565b60008160e01c9050919050565b600060033d11156129c35760046000803e6129c0600051612997565b90505b90565b600060443d10612a53576129d861172a565b60043d036004823e80513d602482011167ffffffffffffffff82111715612a00575050612a53565b808201805167ffffffffffffffff811115612a1e5750505050612a53565b80602083010160043d038501811115612a3b575050505050612a53565b612a4a82602001850186611a0a565b82955050505050505b90565b7f455243313135353a207472616e7366657220746f206e6f6e204552433131353560008201527f526563656976657220696d706c656d656e746572000000000000000000000000602082015250565b6000612ab260348361192f565b9150612abd82612a56565b604082019050919050565b60006020820190508181036000830152612ae181612aa5565b9050919050565b7f455243313135353a204552433131353552656365697665722072656a6563746560008201527f6420746f6b656e73000000000000000000000000000000000000000000000000602082015250565b6000612b4460288361192f565b9150612b4f82612ae8565b604082019050919050565b60006020820190508181036000830152612b7381612b37565b9050919050565b600060a082019050612b8f6000830188611f29565b612b9c6020830187611f29565b612ba96040830186611812565b612bb66060830185611812565b8181036080830152612bc881846128b4565b9050969550505050505056fea2646970667358221220b9a0381cf996d8c9c040848e8a87971bab477cb94e497ad1fe1bda6ef917316c64736f6c6343000811003368747470733a2f2f697066732e696f2f697066732f62616679626569686a6a6b77647278786a6e757765766c7174716d683369656763616463333273696f34776d6f37627632676266333471733334612f7b69647d2e6a736f6e",
  "immutableReferences": {},
  "source": "// SPDX-License-Identifier: MIT\npragma solidity ^0.8.0;\n\nimport \"@openzeppelin/contracts/token/ERC1155/ERC1155.sol\";\nimport \"@openzeppelin/contracts/utils/Strings.sol\";\nimport \"@openzeppelin/contracts/utils/Counters.sol\";\n\ncontract Marketplace is ERC1155 {\n    uint256 public constant Rock = 1;\n    uint256 public constant Paper = 2;\n    uint256 public constant Metaedu = 3;\n\n    event Minted (uint indexed tokenId,address indexed owner,address indexed nftAddress, uint quantity);\n\n    using Counters for Counters.Counter;\n\n    Counters.Counter private _tokenIds;\n    address public marketplace;\n\n\n    constructor() ERC1155(\"https://ipfs.io/ipfs/bafybeihjjkwdrxxjnuwevlqtqmh3iegcadc32sio4wmo7bv2gbf34qs34a/{id}.json\") {\n        _mint(msg.sender, Rock, 1, \"\");\n        _mint(msg.sender, Paper, 1, \"\");\n        _mint(msg.sender, Metaedu, 1, \"\");\n    }\n\n    function mint(address account, uint quantity)\n        public \n    {\n        _tokenIds.increment();\n        uint tokenId = _tokenIds.current();\n        _mint(account, tokenId, quantity, \"\");\n        //Should I generate a hex code using the tokenId, so that the hex code is used to create a link?\n        emit Minted(tokenId, account, address(this), quantity);\n    }\n\n\n    function uri(uint256 _tokenid) override public pure returns (string memory) {\n        return string(\n            abi.encodePacked(\n                \"https://ipfs.io/ipfs/bafybeihjjkwdrxxjnuwevlqtqmh3iegcadc32sio4wmo7bv2gbf34qs34a/\",\n                Strings.toString(_tokenid),\".json\"\n            )\n        );\n    }\n}",
  "sourcePath": "/Users/renakaagusta/Documents/TA/project/NFT-Marketplace/1155/contracts/Marketplace.sol",
  "compiler": {
    "name": "solc",
    "version": "0.8.17+commit.8df45f5f.Emscripten.clang"
  },
  "schemaVersion": "3.4.10",
  "updatedAt": "2023-01-23T13:52:36.975Z",
  "networkType": "ethereum",
  "devdoc": {
    "kind": "dev",
    "methods": {
      "balanceOf(address,uint256)": {
        "details": "See {IERC1155-balanceOf}. Requirements: - `account` cannot be the zero address."
      },
      "balanceOfBatch(address[],uint256[])": {
        "details": "See {IERC1155-balanceOfBatch}. Requirements: - `accounts` and `ids` must have the same length."
      },
      "isApprovedForAll(address,address)": {
        "details": "See {IERC1155-isApprovedForAll}."
      },
      "safeBatchTransferFrom(address,address,uint256[],uint256[],bytes)": {
        "details": "See {IERC1155-safeBatchTransferFrom}."
      },
      "safeTransferFrom(address,address,uint256,uint256,bytes)": {
        "details": "See {IERC1155-safeTransferFrom}."
      },
      "setApprovalForAll(address,bool)": {
        "details": "See {IERC1155-setApprovalForAll}."
      },
      "supportsInterface(bytes4)": {
        "details": "See {IERC165-supportsInterface}."
      }
    },
    "version": 1
  },
  "userdoc": {
    "kind": "user",
    "methods": {},
    "version": 1
  }
}