{
  "contractName": "Metaedu",
  "abi": [
    {
      "inputs": [],
      "stateMutability": "nonpayable",
      "type": "constructor"
    },
    {
      "anonymous": false,
      "inputs": [
        {
          "indexed": true,
          "internalType": "address",
          "name": "account",
          "type": "address"
        },
        {
          "indexed": true,
          "internalType": "address",
          "name": "operator",
          "type": "address"
        },
        {
          "indexed": false,
          "internalType": "bool",
          "name": "approved",
          "type": "bool"
        }
      ],
      "name": "ApprovalForAll",
      "type": "event"
    },
    {
      "anonymous": false,
      "inputs": [
        {
          "indexed": false,
          "internalType": "uint256",
          "name": "tokenId",
          "type": "uint256"
        },
        {
          "indexed": false,
          "internalType": "address",
          "name": "owner",
          "type": "address"
        },
        {
          "indexed": false,
          "internalType": "uint256",
          "name": "quantity",
          "type": "uint256"
        },
        {
          "indexed": false,
          "internalType": "uint256",
          "name": "price",
          "type": "uint256"
        }
      ],
      "name": "ItemAddedForRent",
      "type": "event"
    },
    {
      "anonymous": false,
      "inputs": [
        {
          "indexed": false,
          "internalType": "uint256",
          "name": "tokenId",
          "type": "uint256"
        },
        {
          "indexed": false,
          "internalType": "address",
          "name": "owner",
          "type": "address"
        },
        {
          "indexed": false,
          "internalType": "uint256",
          "name": "quantity",
          "type": "uint256"
        },
        {
          "indexed": false,
          "internalType": "uint256",
          "name": "price",
          "type": "uint256"
        }
      ],
      "name": "ItemAddedForSale",
      "type": "event"
    },
    {
      "anonymous": false,
      "inputs": [
        {
          "indexed": false,
          "internalType": "address",
          "name": "buyer",
          "type": "address"
        },
        {
          "indexed": false,
          "internalType": "address",
          "name": "seller",
          "type": "address"
        },
        {
          "indexed": false,
          "internalType": "uint256",
          "name": "tokenId",
          "type": "uint256"
        },
        {
          "indexed": false,
          "internalType": "uint256",
          "name": "price",
          "type": "uint256"
        }
      ],
      "name": "ItemBuy",
      "type": "event"
    },
    {
      "anonymous": false,
      "inputs": [
        {
          "indexed": false,
          "internalType": "address",
          "name": "user",
          "type": "address"
        },
        {
          "indexed": false,
          "internalType": "address",
          "name": "owner",
          "type": "address"
        },
        {
          "indexed": false,
          "internalType": "uint256",
          "name": "tokenId",
          "type": "uint256"
        },
        {
          "indexed": false,
          "internalType": "uint256",
          "name": "price",
          "type": "uint256"
        },
        {
          "indexed": false,
          "internalType": "uint256",
          "name": "day",
          "type": "uint256"
        }
      ],
      "name": "ItemRent",
      "type": "event"
    },
    {
      "anonymous": false,
      "inputs": [
        {
          "indexed": true,
          "internalType": "uint256",
          "name": "tokenId",
          "type": "uint256"
        },
        {
          "indexed": true,
          "internalType": "address",
          "name": "owner",
          "type": "address"
        },
        {
          "indexed": true,
          "internalType": "address",
          "name": "nftAddress",
          "type": "address"
        },
        {
          "indexed": false,
          "internalType": "uint256",
          "name": "quantity",
          "type": "uint256"
        }
      ],
      "name": "Minted",
      "type": "event"
    },
    {
      "anonymous": false,
      "inputs": [
        {
          "indexed": true,
          "internalType": "uint256",
          "name": "tokenId",
          "type": "uint256"
        },
        {
          "indexed": true,
          "internalType": "address",
          "name": "owner",
          "type": "address"
        },
        {
          "indexed": false,
          "internalType": "uint256",
          "name": "quantity",
          "type": "uint256"
        }
      ],
      "name": "ShareOwnership",
      "type": "event"
    },
    {
      "anonymous": false,
      "inputs": [
        {
          "indexed": true,
          "internalType": "address",
          "name": "operator",
          "type": "address"
        },
        {
          "indexed": true,
          "internalType": "address",
          "name": "from",
          "type": "address"
        },
        {
          "indexed": true,
          "internalType": "address",
          "name": "to",
          "type": "address"
        },
        {
          "indexed": false,
          "internalType": "uint256[]",
          "name": "ids",
          "type": "uint256[]"
        },
        {
          "indexed": false,
          "internalType": "uint256[]",
          "name": "values",
          "type": "uint256[]"
        }
      ],
      "name": "TransferBatch",
      "type": "event"
    },
    {
      "anonymous": false,
      "inputs": [
        {
          "indexed": true,
          "internalType": "address",
          "name": "operator",
          "type": "address"
        },
        {
          "indexed": true,
          "internalType": "address",
          "name": "from",
          "type": "address"
        },
        {
          "indexed": true,
          "internalType": "address",
          "name": "to",
          "type": "address"
        },
        {
          "indexed": false,
          "internalType": "uint256",
          "name": "id",
          "type": "uint256"
        },
        {
          "indexed": false,
          "internalType": "uint256",
          "name": "value",
          "type": "uint256"
        }
      ],
      "name": "TransferSingle",
      "type": "event"
    },
    {
      "anonymous": false,
      "inputs": [
        {
          "indexed": false,
          "internalType": "string",
          "name": "value",
          "type": "string"
        },
        {
          "indexed": true,
          "internalType": "uint256",
          "name": "id",
          "type": "uint256"
        }
      ],
      "name": "URI",
      "type": "event"
    },
    {
      "anonymous": false,
      "inputs": [
        {
          "indexed": false,
          "internalType": "uint256",
          "name": "id",
          "type": "uint256"
        },
        {
          "indexed": false,
          "internalType": "address",
          "name": "buyer",
          "type": "address"
        },
        {
          "indexed": false,
          "internalType": "uint256",
          "name": "price",
          "type": "uint256"
        }
      ],
      "name": "itemSold",
      "type": "event"
    },
    {
      "inputs": [],
      "name": "Paper",
      "outputs": [
        {
          "internalType": "uint256",
          "name": "",
          "type": "uint256"
        }
      ],
      "stateMutability": "view",
      "type": "function"
    },
    {
      "inputs": [],
      "name": "Rock",
      "outputs": [
        {
          "internalType": "uint256",
          "name": "",
          "type": "uint256"
        }
      ],
      "stateMutability": "view",
      "type": "function"
    },
    {
      "inputs": [
        {
          "internalType": "uint256",
          "name": "",
          "type": "uint256"
        },
        {
          "internalType": "address",
          "name": "",
          "type": "address"
        }
      ],
      "name": "_itemsForRent",
      "outputs": [
        {
          "internalType": "uint256",
          "name": "tokenId",
          "type": "uint256"
        },
        {
          "internalType": "uint256",
          "name": "quantity",
          "type": "uint256"
        },
        {
          "internalType": "address payable",
          "name": "owner",
          "type": "address"
        },
        {
          "internalType": "address",
          "name": "user",
          "type": "address"
        },
        {
          "internalType": "uint256",
          "name": "price",
          "type": "uint256"
        },
        {
          "internalType": "uint256",
          "name": "expirationTime",
          "type": "uint256"
        }
      ],
      "stateMutability": "view",
      "type": "function"
    },
    {
      "inputs": [
        {
          "internalType": "uint256",
          "name": "",
          "type": "uint256"
        },
        {
          "internalType": "address",
          "name": "",
          "type": "address"
        }
      ],
      "name": "_itemsForSale",
      "outputs": [
        {
          "internalType": "uint256",
          "name": "tokenId",
          "type": "uint256"
        },
        {
          "internalType": "uint256",
          "name": "quantity",
          "type": "uint256"
        },
        {
          "internalType": "address payable",
          "name": "seller",
          "type": "address"
        },
        {
          "internalType": "uint256",
          "name": "price",
          "type": "uint256"
        },
        {
          "internalType": "bool",
          "name": "isSold",
          "type": "bool"
        }
      ],
      "stateMutability": "view",
      "type": "function"
    },
    {
      "inputs": [
        {
          "internalType": "address",
          "name": "account",
          "type": "address"
        },
        {
          "internalType": "uint256",
          "name": "id",
          "type": "uint256"
        }
      ],
      "name": "balanceOf",
      "outputs": [
        {
          "internalType": "uint256",
          "name": "",
          "type": "uint256"
        }
      ],
      "stateMutability": "view",
      "type": "function"
    },
    {
      "inputs": [
        {
          "internalType": "address[]",
          "name": "accounts",
          "type": "address[]"
        },
        {
          "internalType": "uint256[]",
          "name": "ids",
          "type": "uint256[]"
        }
      ],
      "name": "balanceOfBatch",
      "outputs": [
        {
          "internalType": "uint256[]",
          "name": "",
          "type": "uint256[]"
        }
      ],
      "stateMutability": "view",
      "type": "function"
    },
    {
      "inputs": [],
      "name": "contractAddress",
      "outputs": [
        {
          "internalType": "address",
          "name": "",
          "type": "address"
        }
      ],
      "stateMutability": "view",
      "type": "function"
    },
    {
      "inputs": [
        {
          "internalType": "address",
          "name": "account",
          "type": "address"
        },
        {
          "internalType": "address",
          "name": "operator",
          "type": "address"
        }
      ],
      "name": "isApprovedForAll",
      "outputs": [
        {
          "internalType": "bool",
          "name": "",
          "type": "bool"
        }
      ],
      "stateMutability": "view",
      "type": "function"
    },
    {
      "inputs": [
        {
          "internalType": "address",
          "name": "",
          "type": "address"
        },
        {
          "internalType": "address",
          "name": "",
          "type": "address"
        },
        {
          "internalType": "uint256[]",
          "name": "",
          "type": "uint256[]"
        },
        {
          "internalType": "uint256[]",
          "name": "",
          "type": "uint256[]"
        },
        {
          "internalType": "bytes",
          "name": "",
          "type": "bytes"
        }
      ],
      "name": "onERC1155BatchReceived",
      "outputs": [
        {
          "internalType": "bytes4",
          "name": "",
          "type": "bytes4"
        }
      ],
      "stateMutability": "nonpayable",
      "type": "function"
    },
    {
      "inputs": [
        {
          "internalType": "address",
          "name": "",
          "type": "address"
        },
        {
          "internalType": "address",
          "name": "",
          "type": "address"
        },
        {
          "internalType": "uint256",
          "name": "",
          "type": "uint256"
        },
        {
          "internalType": "uint256",
          "name": "",
          "type": "uint256"
        },
        {
          "internalType": "bytes",
          "name": "",
          "type": "bytes"
        }
      ],
      "name": "onERC1155Received",
      "outputs": [
        {
          "internalType": "bytes4",
          "name": "",
          "type": "bytes4"
        }
      ],
      "stateMutability": "nonpayable",
      "type": "function"
    },
    {
      "inputs": [
        {
          "internalType": "address",
          "name": "from",
          "type": "address"
        },
        {
          "internalType": "address",
          "name": "to",
          "type": "address"
        },
        {
          "internalType": "uint256[]",
          "name": "ids",
          "type": "uint256[]"
        },
        {
          "internalType": "uint256[]",
          "name": "amounts",
          "type": "uint256[]"
        },
        {
          "internalType": "bytes",
          "name": "data",
          "type": "bytes"
        }
      ],
      "name": "safeBatchTransferFrom",
      "outputs": [],
      "stateMutability": "nonpayable",
      "type": "function"
    },
    {
      "inputs": [
        {
          "internalType": "address",
          "name": "operator",
          "type": "address"
        },
        {
          "internalType": "bool",
          "name": "approved",
          "type": "bool"
        }
      ],
      "name": "setApprovalForAll",
      "outputs": [],
      "stateMutability": "nonpayable",
      "type": "function"
    },
    {
      "inputs": [
        {
          "internalType": "bytes4",
          "name": "interfaceId",
          "type": "bytes4"
        }
      ],
      "name": "supportsInterface",
      "outputs": [
        {
          "internalType": "bool",
          "name": "",
          "type": "bool"
        }
      ],
      "stateMutability": "view",
      "type": "function"
    },
    {
      "inputs": [
        {
          "internalType": "uint256",
          "name": "_quantity",
          "type": "uint256"
        },
        {
          "internalType": "string",
          "name": "_uri",
          "type": "string"
        }
      ],
      "name": "mint",
      "outputs": [],
      "stateMutability": "nonpayable",
      "type": "function"
    },
    {
      "inputs": [
        {
          "internalType": "uint256",
          "name": "_tokenId",
          "type": "uint256"
        },
        {
          "internalType": "uint256",
          "name": "_quantity",
          "type": "uint256"
        }
      ],
      "name": "shareOwnership",
      "outputs": [],
      "stateMutability": "nonpayable",
      "type": "function"
    },
    {
      "inputs": [
        {
          "internalType": "uint256",
          "name": "_tokenId",
          "type": "uint256"
        }
      ],
      "name": "sharedOwnershipTokenId",
      "outputs": [
        {
          "internalType": "uint256",
          "name": "",
          "type": "uint256"
        }
      ],
      "stateMutability": "view",
      "type": "function"
    },
    {
      "inputs": [
        {
          "internalType": "uint256",
          "name": "_tokenId",
          "type": "uint256"
        }
      ],
      "name": "quantity",
      "outputs": [
        {
          "internalType": "uint256",
          "name": "",
          "type": "uint256"
        }
      ],
      "stateMutability": "view",
      "type": "function"
    },
    {
      "inputs": [
        {
          "internalType": "uint256",
          "name": "_tokenId",
          "type": "uint256"
        }
      ],
      "name": "uri",
      "outputs": [
        {
          "internalType": "string",
          "name": "",
          "type": "string"
        }
      ],
      "stateMutability": "view",
      "type": "function"
    },
    {
      "inputs": [
        {
          "internalType": "address",
          "name": "from",
          "type": "address"
        },
        {
          "internalType": "address",
          "name": "to",
          "type": "address"
        },
        {
          "internalType": "uint256",
          "name": "id",
          "type": "uint256"
        },
        {
          "internalType": "uint256",
          "name": "amount",
          "type": "uint256"
        },
        {
          "internalType": "bytes",
          "name": "data",
          "type": "bytes"
        }
      ],
      "name": "safeTransferFrom",
      "outputs": [],
      "stateMutability": "nonpayable",
      "type": "function"
    },
    {
      "inputs": [
        {
          "internalType": "uint256",
          "name": "_tokenId",
          "type": "uint256"
        },
        {
          "internalType": "address",
          "name": "_seller",
          "type": "address"
        }
      ],
      "name": "buy",
      "outputs": [],
      "stateMutability": "payable",
      "type": "function"
    },
    {
      "inputs": [
        {
          "internalType": "uint256",
          "name": "_tokenId",
          "type": "uint256"
        },
        {
          "internalType": "uint256",
          "name": "_day",
          "type": "uint256"
        },
        {
          "internalType": "uint256",
          "name": "_datetime",
          "type": "uint256"
        },
        {
          "internalType": "address",
          "name": "_owner",
          "type": "address"
        }
      ],
      "name": "rent",
      "outputs": [],
      "stateMutability": "payable",
      "type": "function"
    },
    {
      "inputs": [
        {
          "internalType": "uint256",
          "name": "_tokenId",
          "type": "uint256"
        },
        {
          "internalType": "uint256",
          "name": "_price",
          "type": "uint256"
        },
        {
          "internalType": "uint256",
          "name": "_quantity",
          "type": "uint256"
        }
      ],
      "name": "putItemForSale",
      "outputs": [
        {
          "internalType": "uint256",
          "name": "",
          "type": "uint256"
        }
      ],
      "stateMutability": "nonpayable",
      "type": "function"
    },
    {
      "inputs": [
        {
          "internalType": "uint256",
          "name": "_tokenId",
          "type": "uint256"
        },
        {
          "internalType": "uint256",
          "name": "_price",
          "type": "uint256"
        },
        {
          "internalType": "uint256",
          "name": "_quantity",
          "type": "uint256"
        }
      ],
      "name": "putItemForRent",
      "outputs": [
        {
          "internalType": "uint256",
          "name": "",
          "type": "uint256"
        }
      ],
      "stateMutability": "nonpayable",
      "type": "function"
    }
  ],
  "bytecode": "0x608060405273e0f5206bbd039e7b0592d8918820024e2a7437b9600360006101000a81548173ffffffffffffffffffffffffffffffffffffffff021916908373ffffffffffffffffffffffffffffffffffffffff1602179055503480156200006657600080fd5b506040518060800160405280605a8152602001620052cb605a913962000092816200013260201b60201c565b5030600360006101000a81548173ffffffffffffffffffffffffffffffffffffffff021916908373ffffffffffffffffffffffffffffffffffffffff1602179055506200010060146040518060800160405280605e81526020016200526d605e91396200014760201b60201c565b6200012c60016040518060800160405280605e815260200162005325605e91396200014760201b60201c565b62001031565b806002908162000143919062000934565b5050565b6200015960096200023a60201b60201c565b60006200016d60096200025060201b60201c565b905062000192338285604051806020016040528060008152506200025e60201b60201c565b81600460008381526020019081526020016000209081620001b4919062000934565b508260056000838152602001908152602001600020819055503073ffffffffffffffffffffffffffffffffffffffff163373ffffffffffffffffffffffffffffffffffffffff16827feea463cdf54761f30159ac8e70945d6f7b091f6ad1b4ee6ef3fa3770f7667559866040516200022d919062000a2c565b60405180910390a4505050565b6001816000016000828254019250508190555050565b600081600001549050919050565b600073ffffffffffffffffffffffffffffffffffffffff168473ffffffffffffffffffffffffffffffffffffffff1603620002d0576040517f08c379a0000000000000000000000000000000000000000000000000000000008152600401620002c79062000ad0565b60405180910390fd5b6000620002e26200042260201b60201c565b90506200031b81600087620002fd886200042a60201b60201c565b6200030e886200042a60201b60201c565b87620004ab60201b60201c565b8260008086815260200190815260200160002060008773ffffffffffffffffffffffffffffffffffffffff1673ffffffffffffffffffffffffffffffffffffffff16815260200190815260200160002060008282546200037c919062000b21565b925050819055508473ffffffffffffffffffffffffffffffffffffffff16600073ffffffffffffffffffffffffffffffffffffffff168273ffffffffffffffffffffffffffffffffffffffff167fc3d58168c5ae7397731d063d5bbf3d657854427343f4c083240f7aacaa2d0f628787604051620003fc92919062000b5c565b60405180910390a46200041b81600087878787620004b360201b60201c565b5050505050565b600033905090565b60606000600167ffffffffffffffff8111156200044c576200044b620006c5565b5b6040519080825280602002602001820160405280156200047b5781602001602082028036833780820191505090505b509050828160008151811062000496576200049562000b89565b5b60200260200101818152505080915050919050565b505050505050565b620004da8473ffffffffffffffffffffffffffffffffffffffff16620006a760201b60201c565b156200069f578373ffffffffffffffffffffffffffffffffffffffff1663f23a6e6187878686866040518663ffffffff1660e01b81526004016200052395949392919062000c97565b6020604051808303816000875af19250505080156200056257506040513d601f19601f820116820180604052508101906200055f919062000d67565b60015b62000613576200057162000da6565b806308c379a003620005d457506200058862000e01565b80620005955750620005d6565b806040517f08c379a0000000000000000000000000000000000000000000000000000000008152600401620005cb919062000edd565b60405180910390fd5b505b6040517f08c379a00000000000000000000000000000000000000000000000000000000081526004016200060a9062000f77565b60405180910390fd5b63f23a6e6160e01b7bffffffffffffffffffffffffffffffffffffffffffffffffffffffff1916817bffffffffffffffffffffffffffffffffffffffffffffffffffffffff1916146200069d576040517f08c379a000000000000000000000000000000000000000000000000000000000815260040162000694906200100f565b60405180910390fd5b505b505050505050565b600080823b905060008111915050919050565b600081519050919050565b7f4e487b7100000000000000000000000000000000000000000000000000000000600052604160045260246000fd5b7f4e487b7100000000000000000000000000000000000000000000000000000000600052602260045260246000fd5b600060028204905060018216806200073c57607f821691505b602082108103620007525762000751620006f4565b5b50919050565b60008190508160005260206000209050919050565b60006020601f8301049050919050565b600082821b905092915050565b600060088302620007bc7fffffffffffffffffffffffffffffffffffffffffffffffffffffffffffffffff826200077d565b620007c886836200077d565b95508019841693508086168417925050509392505050565b6000819050919050565b6000819050919050565b6000620008156200080f6200080984620007e0565b620007ea565b620007e0565b9050919050565b6000819050919050565b6200083183620007f4565b6200084962000840826200081c565b8484546200078a565b825550505050565b600090565b6200086062000851565b6200086d81848462000826565b505050565b5b8181101562000895576200088960008262000856565b60018101905062000873565b5050565b601f821115620008e457620008ae8162000758565b620008b9846200076d565b81016020851015620008c9578190505b620008e1620008d8856200076d565b83018262000872565b50505b505050565b600082821c905092915050565b60006200090960001984600802620008e9565b1980831691505092915050565b6000620009248383620008f6565b9150826002028217905092915050565b6200093f82620006ba565b67ffffffffffffffff8111156200095b576200095a620006c5565b5b62000967825462000723565b6200097482828562000899565b600060209050601f831160018114620009ac576000841562000997578287015190505b620009a3858262000916565b86555062000a13565b601f198416620009bc8662000758565b60005b82811015620009e657848901518255600182019150602085019450602081019050620009bf565b8683101562000a06578489015162000a02601f891682620008f6565b8355505b6001600288020188555050505b505050505050565b62000a2681620007e0565b82525050565b600060208201905062000a43600083018462000a1b565b92915050565b600082825260208201905092915050565b7f455243313135353a206d696e7420746f20746865207a65726f2061646472657360008201527f7300000000000000000000000000000000000000000000000000000000000000602082015250565b600062000ab860218362000a49565b915062000ac58262000a5a565b604082019050919050565b6000602082019050818103600083015262000aeb8162000aa9565b9050919050565b7f4e487b7100000000000000000000000000000000000000000000000000000000600052601160045260246000fd5b600062000b2e82620007e0565b915062000b3b83620007e0565b925082820190508082111562000b565762000b5562000af2565b5b92915050565b600060408201905062000b73600083018562000a1b565b62000b82602083018462000a1b565b9392505050565b7f4e487b7100000000000000000000000000000000000000000000000000000000600052603260045260246000fd5b600073ffffffffffffffffffffffffffffffffffffffff82169050919050565b600062000be58262000bb8565b9050919050565b62000bf78162000bd8565b82525050565b600081519050919050565b600082825260208201905092915050565b60005b8381101562000c3957808201518184015260208101905062000c1c565b60008484015250505050565b6000601f19601f8301169050919050565b600062000c638262000bfd565b62000c6f818562000c08565b935062000c8181856020860162000c19565b62000c8c8162000c45565b840191505092915050565b600060a08201905062000cae600083018862000bec565b62000cbd602083018762000bec565b62000ccc604083018662000a1b565b62000cdb606083018562000a1b565b818103608083015262000cef818462000c56565b90509695505050505050565b6000604051905090565b600080fd5b60007fffffffff0000000000000000000000000000000000000000000000000000000082169050919050565b62000d418162000d0a565b811462000d4d57600080fd5b50565b60008151905062000d618162000d36565b92915050565b60006020828403121562000d805762000d7f62000d05565b5b600062000d908482850162000d50565b91505092915050565b60008160e01c9050919050565b600060033d111562000dc85760046000803e62000dc560005162000d99565b90505b90565b62000dd68262000c45565b810181811067ffffffffffffffff8211171562000df85762000df7620006c5565b5b80604052505050565b600060443d1062000e995762000e1662000cfb565b60043d036004823e80513d602482011167ffffffffffffffff8211171562000e4057505062000e99565b808201805167ffffffffffffffff81111562000e60575050505062000e99565b80602083010160043d03850181111562000e7f57505050505062000e99565b62000e908260200185018662000dcb565b82955050505050505b90565b600062000ea982620006ba565b62000eb5818562000a49565b935062000ec781856020860162000c19565b62000ed28162000c45565b840191505092915050565b6000602082019050818103600083015262000ef9818462000e9c565b905092915050565b7f455243313135353a207472616e7366657220746f206e6f6e204552433131353560008201527f526563656976657220696d706c656d656e746572000000000000000000000000602082015250565b600062000f5f60348362000a49565b915062000f6c8262000f01565b604082019050919050565b6000602082019050818103600083015262000f928162000f50565b9050919050565b7f455243313135353a204552433131353552656365697665722072656a6563746560008201527f6420746f6b656e73000000000000000000000000000000000000000000000000602082015250565b600062000ff760288362000a49565b9150620010048262000f99565b604082019050919050565b600060208201905081810360008301526200102a8162000fe8565b9050919050565b61422c80620010416000396000f3fe60806040526004361061013f5760003560e01c80637deb6025116100b6578063bc197c811161006f578063bc197c81146104b8578063cc2f8e32146104f5578063e985e9c51461051e578063f23a6e611461055b578063f242432a14610598578063f6b4dfb4146105c15761013f565b80637deb60251461038c57806382835a99146103a8578063a22cb465146103e5578063af769eff1461040e578063b0e4ac7414610439578063b87cf81b1461047b5761013f565b80632eb2c2d6116101085780632eb2c2d614610279578063317efe90146102a25780633ddab6a9146102be5780634e1273f4146102fb578063606895571461033857806377097fc8146103635761013f565b8062fdd58e1461014457806301ffc9a71461018157806304ed81ab146101be5780630e89341c146101fb57806311a62d6514610238575b600080fd5b34801561015057600080fd5b5061016b60048036038101906101669190612775565b6105ec565b60405161017891906127c4565b60405180910390f35b34801561018d57600080fd5b506101a860048036038101906101a39190612837565b6106b4565b6040516101b5919061287f565b60405180910390f35b3480156101ca57600080fd5b506101e560048036038101906101e0919061289a565b6106c6565b6040516101f291906127c4565b60405180910390f35b34801561020757600080fd5b50610222600480360381019061021d919061289a565b6106e3565b60405161022f9190612957565b60405180910390f35b34801561024457600080fd5b5061025f600480360381019061025a9190612979565b610788565b6040516102709594939291906129da565b60405180910390f35b34801561028557600080fd5b506102a0600480360381019061029b9190612c2a565b6107f8565b005b6102bc60048036038101906102b79190612cf9565b610899565b005b3480156102ca57600080fd5b506102e560048036038101906102e0919061289a565b610bb0565b6040516102f291906127c4565b60405180910390f35b34801561030757600080fd5b50610322600480360381019061031d9190612e23565b610bcd565b60405161032f9190612f59565b60405180910390f35b34801561034457600080fd5b5061034d610ce6565b60405161035a91906127c4565b60405180910390f35b34801561036f57600080fd5b5061038a6004803603810190610385919061301c565b610ceb565b005b6103a660048036038101906103a19190612979565b610dc2565b005b3480156103b457600080fd5b506103cf60048036038101906103ca9190613078565b61107c565b6040516103dc91906127c4565b60405180910390f35b3480156103f157600080fd5b5061040c600480360381019061040791906130f7565b61122b565b005b34801561041a57600080fd5b506104236113ab565b60405161043091906127c4565b60405180910390f35b34801561044557600080fd5b50610460600480360381019061045b9190612979565b6113b0565b60405161047296959493929190613146565b60405180910390f35b34801561048757600080fd5b506104a2600480360381019061049d9190613078565b611439565b6040516104af91906127c4565b60405180910390f35b3480156104c457600080fd5b506104df60048036038101906104da9190612c2a565b61168b565b6040516104ec91906131b6565b60405180910390f35b34801561050157600080fd5b5061051c600480360381019061051791906131d1565b6116a0565b005b34801561052a57600080fd5b5061054560048036038101906105409190613211565b61188c565b604051610552919061287f565b60405180910390f35b34801561056757600080fd5b50610582600480360381019061057d9190613251565b611920565b60405161058f91906131b6565b60405180910390f35b3480156105a457600080fd5b506105bf60048036038101906105ba9190613251565b611935565b005b3480156105cd57600080fd5b506105d6611949565b6040516105e391906132e8565b60405180910390f35b60008073ffffffffffffffffffffffffffffffffffffffff168373ffffffffffffffffffffffffffffffffffffffff160361065c576040517f08c379a000000000000000000000000000000000000000000000000000000000815260040161065390613375565b60405180910390fd5b60008083815260200190815260200160002060008473ffffffffffffffffffffffffffffffffffffffff1673ffffffffffffffffffffffffffffffffffffffff16815260200190815260200160002054905092915050565b60006106bf8261196f565b9050919050565b600060066000838152602001908152602001600020549050919050565b6060600460008381526020019081526020016000208054610703906133c4565b80601f016020809104026020016040519081016040528092919081815260200182805461072f906133c4565b801561077c5780601f106107515761010080835404028352916020019161077c565b820191906000526020600020905b81548152906001019060200180831161075f57829003601f168201915b50505050509050919050565b6007602052816000526040600020602052806000526040600020600091509150508060000154908060010154908060020160009054906101000a900473ffffffffffffffffffffffffffffffffffffffff16908060030154908060040160009054906101000a900460ff16905085565b6108006119e9565b73ffffffffffffffffffffffffffffffffffffffff168573ffffffffffffffffffffffffffffffffffffffff1614806108465750610845856108406119e9565b61188c565b5b610885576040517f08c379a000000000000000000000000000000000000000000000000000000000815260040161087c90613467565b60405180910390fd5b61089285858585856119f1565b5050505050565b83818073ffffffffffffffffffffffffffffffffffffffff163373ffffffffffffffffffffffffffffffffffffffff1603610909576040517f08c379a0000000000000000000000000000000000000000000000000000000008152600401610900906134d3565b60405180910390fd5b846008600088815260200190815260200160002060008573ffffffffffffffffffffffffffffffffffffffff1673ffffffffffffffffffffffffffffffffffffffff168152602001908152602001600020600401546109689190613522565b803410156109ab576040517f08c379a00000000000000000000000000000000000000000000000000000000081526004016109a2906135b0565b60405180910390fd5b868486806008600085815260200190815260200160002060008473ffffffffffffffffffffffffffffffffffffffff1673ffffffffffffffffffffffffffffffffffffffff16815260200190815260200160002060050154111580610a63575060006008600085815260200190815260200160002060008473ffffffffffffffffffffffffffffffffffffffff1673ffffffffffffffffffffffffffffffffffffffff16815260200190815260200160002060050154145b610aa2576040517f08c379a0000000000000000000000000000000000000000000000000000000008152600401610a999061361c565b60405180910390fd5b610e1089610ab09190613522565b88610abb919061363c565b600860008c815260200190815260200160002060008973ffffffffffffffffffffffffffffffffffffffff1673ffffffffffffffffffffffffffffffffffffffff1681526020019081526020016000206005018190555033600860008c815260200190815260200160002060008973ffffffffffffffffffffffffffffffffffffffff1673ffffffffffffffffffffffffffffffffffffffff16815260200190815260200160002060030160006101000a81548173ffffffffffffffffffffffffffffffffffffffff021916908373ffffffffffffffffffffffffffffffffffffffff16021790555050505050505050505050565b600060056000838152602001908152602001600020549050919050565b60608151835114610c13576040517f08c379a0000000000000000000000000000000000000000000000000000000008152600401610c0a906136e2565b60405180910390fd5b6000835167ffffffffffffffff811115610c3057610c2f612a32565b5b604051908082528060200260200182016040528015610c5e5781602001602082028036833780820191505090505b50905060005b8451811015610cdb57610cab858281518110610c8357610c82613702565b5b6020026020010151858381518110610c9e57610c9d613702565b5b60200260200101516105ec565b828281518110610cbe57610cbd613702565b5b60200260200101818152505080610cd490613731565b9050610c64565b508091505092915050565b600181565b610cf56009611d04565b6000610d016009611d1a565b9050610d1e33828560405180602001604052806000815250611d28565b81600460008381526020019081526020016000209081610d3e9190613925565b508260056000838152602001908152602001600020819055503073ffffffffffffffffffffffffffffffffffffffff163373ffffffffffffffffffffffffffffffffffffffff16827feea463cdf54761f30159ac8e70945d6f7b091f6ad1b4ee6ef3fa3770f766755986604051610db591906127c4565b60405180910390a4505050565b81818073ffffffffffffffffffffffffffffffffffffffff163373ffffffffffffffffffffffffffffffffffffffff1603610e32576040517f08c379a0000000000000000000000000000000000000000000000000000000008152600401610e29906134d3565b60405180910390fd5b6007600085815260200190815260200160002060008473ffffffffffffffffffffffffffffffffffffffff1673ffffffffffffffffffffffffffffffffffffffff1681526020019081526020016000206003015480341015610ec9576040517f08c379a0000000000000000000000000000000000000000000000000000000008152600401610ec0906135b0565b60405180910390fd5b8484600015156007600084815260200190815260200160002060008373ffffffffffffffffffffffffffffffffffffffff1673ffffffffffffffffffffffffffffffffffffffff16815260200190815260200160002060040160009054906101000a900460ff16151514610f72576040517f08c379a0000000000000000000000000000000000000000000000000000000008152600401610f6990613a43565b60405180910390fd5b611007863389600760008c815260200190815260200160002060008b73ffffffffffffffffffffffffffffffffffffffff1673ffffffffffffffffffffffffffffffffffffffff168152602001908152602001600020600101546040518060400160405280600381526020017f3078300000000000000000000000000000000000000000000000000000000000815250611935565b60016007600089815260200190815260200160002060008873ffffffffffffffffffffffffffffffffffffffff1673ffffffffffffffffffffffffffffffffffffffff16815260200190815260200160002060040160006101000a81548160ff02191690831515021790555050505050505050565b600083600061108b33836105ec565b036110cb576040517f08c379a00000000000000000000000000000000000000000000000000000000081526004016110c290613aaf565b60405180910390fd5b6040518060a001604052808681526020018481526020013373ffffffffffffffffffffffffffffffffffffffff168152602001858152602001600015158152506007600087815260200190815260200160002060003373ffffffffffffffffffffffffffffffffffffffff1673ffffffffffffffffffffffffffffffffffffffff168152602001908152602001600020600082015181600001556020820151816001015560408201518160020160006101000a81548173ffffffffffffffffffffffffffffffffffffffff021916908373ffffffffffffffffffffffffffffffffffffffff1602179055506060820151816003015560808201518160040160006101000a81548160ff0219169083151502179055509050507f9a5e45cfe5bbc15cffbbb40607ec1ab447d2046a6070023aebc57ef3bd2005c1853385876040516112189493929190613acf565b60405180910390a1849150509392505050565b8173ffffffffffffffffffffffffffffffffffffffff1661124a6119e9565b73ffffffffffffffffffffffffffffffffffffffff16036112a0576040517f08c379a000000000000000000000000000000000000000000000000000000000815260040161129790613b86565b60405180910390fd5b80600160006112ad6119e9565b73ffffffffffffffffffffffffffffffffffffffff1673ffffffffffffffffffffffffffffffffffffffff16815260200190815260200160002060008473ffffffffffffffffffffffffffffffffffffffff1673ffffffffffffffffffffffffffffffffffffffff16815260200190815260200160002060006101000a81548160ff0219169083151502179055508173ffffffffffffffffffffffffffffffffffffffff1661135a6119e9565b73ffffffffffffffffffffffffffffffffffffffff167f17307eab39ab6107e8899845ad3d59bd9653f200f220920489ca2b5937696c318360405161139f919061287f565b60405180910390a35050565b600281565b6008602052816000526040600020602052806000526040600020600091509150508060000154908060010154908060020160009054906101000a900473ffffffffffffffffffffffffffffffffffffffff16908060030160009054906101000a900473ffffffffffffffffffffffffffffffffffffffff16908060040154908060050154905086565b600083600061144833836105ec565b03611488576040517f08c379a000000000000000000000000000000000000000000000000000000000815260040161147f90613aaf565b60405180910390fd5b8460016005600083815260200190815260200160002054146114df576040517f08c379a00000000000000000000000000000000000000000000000000000000081526004016114d690613bf2565b60405180910390fd5b6040518060c001604052808781526020018581526020013373ffffffffffffffffffffffffffffffffffffffff1681526020013373ffffffffffffffffffffffffffffffffffffffff16815260200186815260200160008152506008600088815260200190815260200160002060003373ffffffffffffffffffffffffffffffffffffffff1673ffffffffffffffffffffffffffffffffffffffff168152602001908152602001600020600082015181600001556020820151816001015560408201518160020160006101000a81548173ffffffffffffffffffffffffffffffffffffffff021916908373ffffffffffffffffffffffffffffffffffffffff16021790555060608201518160030160006101000a81548173ffffffffffffffffffffffffffffffffffffffff021916908373ffffffffffffffffffffffffffffffffffffffff1602179055506080820151816004015560a082015181600501559050507f7221ca00e718f25b9ebf46fd06c61846ac5c17b529dd61fe23e230fdbaa0703c863386886040516116779493929190613acf565b60405180910390a185925050509392505050565b600063bc197c8160e01b905095945050505050565b81336000806008600085815260200190815260200160002060008473ffffffffffffffffffffffffffffffffffffffff1673ffffffffffffffffffffffffffffffffffffffff16815260200190815260200160002060050154111580611759575060006008600085815260200190815260200160002060008473ffffffffffffffffffffffffffffffffffffffff1673ffffffffffffffffffffffffffffffffffffffff16815260200190815260200160002060050154145b611798576040517f08c379a000000000000000000000000000000000000000000000000000000000815260040161178f9061361c565b60405180910390fd5b6117fc33600360009054906101000a900473ffffffffffffffffffffffffffffffffffffffff1687876040518060400160405280600381526020017f3078300000000000000000000000000000000000000000000000000000000000815250611935565b6118158460405180602001604052806000815250610ceb565b61181f6009611d1a565b60066000878152602001908152602001600020819055503373ffffffffffffffffffffffffffffffffffffffff16857f07a01700b7b6749a1c84d18f81470ee571f6222cdd76f4cbd86af901bf52ee758660405161187d91906127c4565b60405180910390a35050505050565b6000600160008473ffffffffffffffffffffffffffffffffffffffff1673ffffffffffffffffffffffffffffffffffffffff16815260200190815260200160002060008373ffffffffffffffffffffffffffffffffffffffff1673ffffffffffffffffffffffffffffffffffffffff16815260200190815260200160002060009054906101000a900460ff16905092915050565b600063f23a6e6160e01b905095945050505050565b6119428585858585611ebd565b5050505050565b600360009054906101000a900473ffffffffffffffffffffffffffffffffffffffff1681565b60007f4e2312e0000000000000000000000000000000000000000000000000000000007bffffffffffffffffffffffffffffffffffffffffffffffffffffffff1916827bffffffffffffffffffffffffffffffffffffffffffffffffffffffff191614806119e257506119e18261213e565b5b9050919050565b600033905090565b8151835114611a35576040517f08c379a0000000000000000000000000000000000000000000000000000000008152600401611a2c90613c84565b60405180910390fd5b600073ffffffffffffffffffffffffffffffffffffffff168473ffffffffffffffffffffffffffffffffffffffff1603611aa4576040517f08c379a0000000000000000000000000000000000000000000000000000000008152600401611a9b90613d16565b60405180910390fd5b6000611aae6119e9565b9050611abe818787878787612220565b60005b8451811015611c6f576000858281518110611adf57611ade613702565b5b602002602001015190506000858381518110611afe57611afd613702565b5b60200260200101519050600080600084815260200190815260200160002060008b73ffffffffffffffffffffffffffffffffffffffff1673ffffffffffffffffffffffffffffffffffffffff16815260200190815260200160002054905081811015611b9f576040517f08c379a0000000000000000000000000000000000000000000000000000000008152600401611b9690613da8565b60405180910390fd5b81810360008085815260200190815260200160002060008c73ffffffffffffffffffffffffffffffffffffffff1673ffffffffffffffffffffffffffffffffffffffff168152602001908152602001600020819055508160008085815260200190815260200160002060008b73ffffffffffffffffffffffffffffffffffffffff1673ffffffffffffffffffffffffffffffffffffffff1681526020019081526020016000206000828254611c54919061363c565b9250508190555050505080611c6890613731565b9050611ac1565b508473ffffffffffffffffffffffffffffffffffffffff168673ffffffffffffffffffffffffffffffffffffffff168273ffffffffffffffffffffffffffffffffffffffff167f4a39dc06d4c0dbc64b70af90fd698a233a518aa5d07e595d983b8c0526c8f7fb8787604051611ce6929190613dc8565b60405180910390a4611cfc818787878787612228565b505050505050565b6001816000016000828254019250508190555050565b600081600001549050919050565b600073ffffffffffffffffffffffffffffffffffffffff168473ffffffffffffffffffffffffffffffffffffffff1603611d97576040517f08c379a0000000000000000000000000000000000000000000000000000000008152600401611d8e90613e71565b60405180910390fd5b6000611da16119e9565b9050611dc281600087611db3886123ff565b611dbc886123ff565b87612220565b8260008086815260200190815260200160002060008773ffffffffffffffffffffffffffffffffffffffff1673ffffffffffffffffffffffffffffffffffffffff1681526020019081526020016000206000828254611e21919061363c565b925050819055508473ffffffffffffffffffffffffffffffffffffffff16600073ffffffffffffffffffffffffffffffffffffffff168273ffffffffffffffffffffffffffffffffffffffff167fc3d58168c5ae7397731d063d5bbf3d657854427343f4c083240f7aacaa2d0f628787604051611e9f929190613e91565b60405180910390a4611eb681600087878787612479565b5050505050565b600073ffffffffffffffffffffffffffffffffffffffff168473ffffffffffffffffffffffffffffffffffffffff1603611f2c576040517f08c379a0000000000000000000000000000000000000000000000000000000008152600401611f2390613d16565b60405180910390fd5b6000611f366119e9565b9050611f56818787611f47886123ff565b611f50886123ff565b87612220565b600080600086815260200190815260200160002060008873ffffffffffffffffffffffffffffffffffffffff1673ffffffffffffffffffffffffffffffffffffffff16815260200190815260200160002054905083811015611fed576040517f08c379a0000000000000000000000000000000000000000000000000000000008152600401611fe490613da8565b60405180910390fd5b83810360008087815260200190815260200160002060008973ffffffffffffffffffffffffffffffffffffffff1673ffffffffffffffffffffffffffffffffffffffff168152602001908152602001600020819055508360008087815260200190815260200160002060008873ffffffffffffffffffffffffffffffffffffffff1673ffffffffffffffffffffffffffffffffffffffff16815260200190815260200160002060008282546120a2919061363c565b925050819055508573ffffffffffffffffffffffffffffffffffffffff168773ffffffffffffffffffffffffffffffffffffffff168373ffffffffffffffffffffffffffffffffffffffff167fc3d58168c5ae7397731d063d5bbf3d657854427343f4c083240f7aacaa2d0f62888860405161211f929190613e91565b60405180910390a4612135828888888888612479565b50505050505050565b60007fd9b67a26000000000000000000000000000000000000000000000000000000007bffffffffffffffffffffffffffffffffffffffffffffffffffffffff1916827bffffffffffffffffffffffffffffffffffffffffffffffffffffffff1916148061220957507f0e89341c000000000000000000000000000000000000000000000000000000007bffffffffffffffffffffffffffffffffffffffffffffffffffffffff1916827bffffffffffffffffffffffffffffffffffffffffffffffffffffffff1916145b80612219575061221882612650565b5b9050919050565b505050505050565b6122478473ffffffffffffffffffffffffffffffffffffffff166126ba565b156123f7578373ffffffffffffffffffffffffffffffffffffffff1663bc197c8187878686866040518663ffffffff1660e01b815260040161228d959493929190613f0f565b6020604051808303816000875af19250505080156122c957506040513d601f19601f820116820180604052508101906122c69190613f8c565b60015b61236e576122d5613fc6565b806308c379a00361233157506122e9613fe8565b806122f45750612333565b806040517f08c379a00000000000000000000000000000000000000000000000000000000081526004016123289190612957565b60405180910390fd5b505b6040517f08c379a0000000000000000000000000000000000000000000000000000000008152600401612365906140ea565b60405180910390fd5b63bc197c8160e01b7bffffffffffffffffffffffffffffffffffffffffffffffffffffffff1916817bffffffffffffffffffffffffffffffffffffffffffffffffffffffff1916146123f5576040517f08c379a00000000000000000000000000000000000000000000000000000000081526004016123ec9061417c565b60405180910390fd5b505b505050505050565b60606000600167ffffffffffffffff81111561241e5761241d612a32565b5b60405190808252806020026020018201604052801561244c5781602001602082028036833780820191505090505b509050828160008151811061246457612463613702565b5b60200260200101818152505080915050919050565b6124988473ffffffffffffffffffffffffffffffffffffffff166126ba565b15612648578373ffffffffffffffffffffffffffffffffffffffff1663f23a6e6187878686866040518663ffffffff1660e01b81526004016124de95949392919061419c565b6020604051808303816000875af192505050801561251a57506040513d601f19601f820116820180604052508101906125179190613f8c565b60015b6125bf57612526613fc6565b806308c379a003612582575061253a613fe8565b806125455750612584565b806040517f08c379a00000000000000000000000000000000000000000000000000000000081526004016125799190612957565b60405180910390fd5b505b6040517f08c379a00000000000000000000000000000000000000000000000000000000081526004016125b6906140ea565b60405180910390fd5b63f23a6e6160e01b7bffffffffffffffffffffffffffffffffffffffffffffffffffffffff1916817bffffffffffffffffffffffffffffffffffffffffffffffffffffffff191614612646576040517f08c379a000000000000000000000000000000000000000000000000000000000815260040161263d9061417c565b60405180910390fd5b505b505050505050565b60007f01ffc9a7000000000000000000000000000000000000000000000000000000007bffffffffffffffffffffffffffffffffffffffffffffffffffffffff1916827bffffffffffffffffffffffffffffffffffffffffffffffffffffffff1916149050919050565b600080823b905060008111915050919050565b6000604051905090565b600080fd5b600080fd5b600073ffffffffffffffffffffffffffffffffffffffff82169050919050565b600061270c826126e1565b9050919050565b61271c81612701565b811461272757600080fd5b50565b60008135905061273981612713565b92915050565b6000819050919050565b6127528161273f565b811461275d57600080fd5b50565b60008135905061276f81612749565b92915050565b6000806040838503121561278c5761278b6126d7565b5b600061279a8582860161272a565b92505060206127ab85828601612760565b9150509250929050565b6127be8161273f565b82525050565b60006020820190506127d960008301846127b5565b92915050565b60007fffffffff0000000000000000000000000000000000000000000000000000000082169050919050565b612814816127df565b811461281f57600080fd5b50565b6000813590506128318161280b565b92915050565b60006020828403121561284d5761284c6126d7565b5b600061285b84828501612822565b91505092915050565b60008115159050919050565b61287981612864565b82525050565b60006020820190506128946000830184612870565b92915050565b6000602082840312156128b0576128af6126d7565b5b60006128be84828501612760565b91505092915050565b600081519050919050565b600082825260208201905092915050565b60005b838110156129015780820151818401526020810190506128e6565b60008484015250505050565b6000601f19601f8301169050919050565b6000612929826128c7565b61293381856128d2565b93506129438185602086016128e3565b61294c8161290d565b840191505092915050565b60006020820190508181036000830152612971818461291e565b905092915050565b600080604083850312156129905761298f6126d7565b5b600061299e85828601612760565b92505060206129af8582860161272a565b9150509250929050565b60006129c4826126e1565b9050919050565b6129d4816129b9565b82525050565b600060a0820190506129ef60008301886127b5565b6129fc60208301876127b5565b612a0960408301866129cb565b612a1660608301856127b5565b612a236080830184612870565b9695505050505050565b600080fd5b7f4e487b7100000000000000000000000000000000000000000000000000000000600052604160045260246000fd5b612a6a8261290d565b810181811067ffffffffffffffff82111715612a8957612a88612a32565b5b80604052505050565b6000612a9c6126cd565b9050612aa88282612a61565b919050565b600067ffffffffffffffff821115612ac857612ac7612a32565b5b602082029050602081019050919050565b600080fd5b6000612af1612aec84612aad565b612a92565b90508083825260208201905060208402830185811115612b1457612b13612ad9565b5b835b81811015612b3d5780612b298882612760565b845260208401935050602081019050612b16565b5050509392505050565b600082601f830112612b5c57612b5b612a2d565b5b8135612b6c848260208601612ade565b91505092915050565b600080fd5b600067ffffffffffffffff821115612b9557612b94612a32565b5b612b9e8261290d565b9050602081019050919050565b82818337600083830152505050565b6000612bcd612bc884612b7a565b612a92565b905082815260208101848484011115612be957612be8612b75565b5b612bf4848285612bab565b509392505050565b600082601f830112612c1157612c10612a2d565b5b8135612c21848260208601612bba565b91505092915050565b600080600080600060a08688031215612c4657612c456126d7565b5b6000612c548882890161272a565b9550506020612c658882890161272a565b945050604086013567ffffffffffffffff811115612c8657612c856126dc565b5b612c9288828901612b47565b935050606086013567ffffffffffffffff811115612cb357612cb26126dc565b5b612cbf88828901612b47565b925050608086013567ffffffffffffffff811115612ce057612cdf6126dc565b5b612cec88828901612bfc565b9150509295509295909350565b60008060008060808587031215612d1357612d126126d7565b5b6000612d2187828801612760565b9450506020612d3287828801612760565b9350506040612d4387828801612760565b9250506060612d548782880161272a565b91505092959194509250565b600067ffffffffffffffff821115612d7b57612d7a612a32565b5b602082029050602081019050919050565b6000612d9f612d9a84612d60565b612a92565b90508083825260208201905060208402830185811115612dc257612dc1612ad9565b5b835b81811015612deb5780612dd7888261272a565b845260208401935050602081019050612dc4565b5050509392505050565b600082601f830112612e0a57612e09612a2d565b5b8135612e1a848260208601612d8c565b91505092915050565b60008060408385031215612e3a57612e396126d7565b5b600083013567ffffffffffffffff811115612e5857612e576126dc565b5b612e6485828601612df5565b925050602083013567ffffffffffffffff811115612e8557612e846126dc565b5b612e9185828601612b47565b9150509250929050565b600081519050919050565b600082825260208201905092915050565b6000819050602082019050919050565b612ed08161273f565b82525050565b6000612ee28383612ec7565b60208301905092915050565b6000602082019050919050565b6000612f0682612e9b565b612f108185612ea6565b9350612f1b83612eb7565b8060005b83811015612f4c578151612f338882612ed6565b9750612f3e83612eee565b925050600181019050612f1f565b5085935050505092915050565b60006020820190508181036000830152612f738184612efb565b905092915050565b600067ffffffffffffffff821115612f9657612f95612a32565b5b612f9f8261290d565b9050602081019050919050565b6000612fbf612fba84612f7b565b612a92565b905082815260208101848484011115612fdb57612fda612b75565b5b612fe6848285612bab565b509392505050565b600082601f83011261300357613002612a2d565b5b8135613013848260208601612fac565b91505092915050565b60008060408385031215613033576130326126d7565b5b600061304185828601612760565b925050602083013567ffffffffffffffff811115613062576130616126dc565b5b61306e85828601612fee565b9150509250929050565b600080600060608486031215613091576130906126d7565b5b600061309f86828701612760565b93505060206130b086828701612760565b92505060406130c186828701612760565b9150509250925092565b6130d481612864565b81146130df57600080fd5b50565b6000813590506130f1816130cb565b92915050565b6000806040838503121561310e5761310d6126d7565b5b600061311c8582860161272a565b925050602061312d858286016130e2565b9150509250929050565b61314081612701565b82525050565b600060c08201905061315b60008301896127b5565b61316860208301886127b5565b61317560408301876129cb565b6131826060830186613137565b61318f60808301856127b5565b61319c60a08301846127b5565b979650505050505050565b6131b0816127df565b82525050565b60006020820190506131cb60008301846131a7565b92915050565b600080604083850312156131e8576131e76126d7565b5b60006131f685828601612760565b925050602061320785828601612760565b9150509250929050565b60008060408385031215613228576132276126d7565b5b60006132368582860161272a565b92505060206132478582860161272a565b9150509250929050565b600080600080600060a0868803121561326d5761326c6126d7565b5b600061327b8882890161272a565b955050602061328c8882890161272a565b945050604061329d88828901612760565b93505060606132ae88828901612760565b925050608086013567ffffffffffffffff8111156132cf576132ce6126dc565b5b6132db88828901612bfc565b9150509295509295909350565b60006020820190506132fd6000830184613137565b92915050565b7f455243313135353a2062616c616e636520717565727920666f7220746865207a60008201527f65726f2061646472657373000000000000000000000000000000000000000000602082015250565b600061335f602b836128d2565b915061336a82613303565b604082019050919050565b6000602082019050818103600083015261338e81613352565b9050919050565b7f4e487b7100000000000000000000000000000000000000000000000000000000600052602260045260246000fd5b600060028204905060018216806133dc57607f821691505b6020821081036133ef576133ee613395565b5b50919050565b7f455243313135353a207472616e736665722063616c6c6572206973206e6f742060008201527f6f776e6572206e6f7220617070726f7665640000000000000000000000000000602082015250565b60006134516032836128d2565b915061345c826133f5565b604082019050919050565b6000602082019050818103600083015261348081613444565b9050919050565b7f4275796572206973206e6f742076616c69640000000000000000000000000000600082015250565b60006134bd6012836128d2565b91506134c882613487565b602082019050919050565b600060208201905081810360008301526134ec816134b0565b9050919050565b7f4e487b7100000000000000000000000000000000000000000000000000000000600052601160045260246000fd5b600061352d8261273f565b91506135388361273f565b92508282026135468161273f565b9150828204841483151761355d5761355c6134f3565b5b5092915050565b7f42616c616e6365206973206e6f7420656e6f7567680000000000000000000000600082015250565b600061359a6015836128d2565b91506135a582613564565b602082019050919050565b600060208201905081810360008301526135c98161358d565b9050919050565b7f546f6b656e2069732072656e7465640000000000000000000000000000000000600082015250565b6000613606600f836128d2565b9150613611826135d0565b602082019050919050565b60006020820190508181036000830152613635816135f9565b9050919050565b60006136478261273f565b91506136528361273f565b925082820190508082111561366a576136696134f3565b5b92915050565b7f455243313135353a206163636f756e747320616e6420696473206c656e67746860008201527f206d69736d617463680000000000000000000000000000000000000000000000602082015250565b60006136cc6029836128d2565b91506136d782613670565b604082019050919050565b600060208201905081810360008301526136fb816136bf565b9050919050565b7f4e487b7100000000000000000000000000000000000000000000000000000000600052603260045260246000fd5b600061373c8261273f565b91507fffffffffffffffffffffffffffffffffffffffffffffffffffffffffffffffff820361376e5761376d6134f3565b5b600182019050919050565b60008190508160005260206000209050919050565b60006020601f8301049050919050565b600082821b905092915050565b6000600883026137db7fffffffffffffffffffffffffffffffffffffffffffffffffffffffffffffffff8261379e565b6137e5868361379e565b95508019841693508086168417925050509392505050565b6000819050919050565b600061382261381d6138188461273f565b6137fd565b61273f565b9050919050565b6000819050919050565b61383c83613807565b61385061384882613829565b8484546137ab565b825550505050565b600090565b613865613858565b613870818484613833565b505050565b5b818110156138945761388960008261385d565b600181019050613876565b5050565b601f8211156138d9576138aa81613779565b6138b38461378e565b810160208510156138c2578190505b6138d66138ce8561378e565b830182613875565b50505b505050565b600082821c905092915050565b60006138fc600019846008026138de565b1980831691505092915050565b600061391583836138eb565b9150826002028217905092915050565b61392e826128c7565b67ffffffffffffffff81111561394757613946612a32565b5b61395182546133c4565b61395c828285613898565b600060209050601f83116001811461398f576000841561397d578287015190505b6139878582613909565b8655506139ef565b601f19841661399d86613779565b60005b828110156139c5578489015182556001820191506020850194506020810190506139a0565b868310156139e257848901516139de601f8916826138eb565b8355505b6001600288020188555050505b505050505050565b7f546f6b656e20697320736f6c6400000000000000000000000000000000000000600082015250565b6000613a2d600d836128d2565b9150613a38826139f7565b602082019050919050565b60006020820190508181036000830152613a5c81613a20565b9050919050565b7f53656e64657220646f6573206e6f74206f776e20746865206974656d00000000600082015250565b6000613a99601c836128d2565b9150613aa482613a63565b602082019050919050565b60006020820190508181036000830152613ac881613a8c565b9050919050565b6000608082019050613ae460008301876127b5565b613af16020830186613137565b613afe60408301856127b5565b613b0b60608301846127b5565b95945050505050565b7f455243313135353a2073657474696e6720617070726f76616c2073746174757360008201527f20666f722073656c660000000000000000000000000000000000000000000000602082015250565b6000613b706029836128d2565b9150613b7b82613b14565b604082019050919050565b60006020820190508181036000830152613b9f81613b63565b9050919050565b7f546f6b656e2069732066756e6769626c65000000000000000000000000000000600082015250565b6000613bdc6011836128d2565b9150613be782613ba6565b602082019050919050565b60006020820190508181036000830152613c0b81613bcf565b9050919050565b7f455243313135353a2069647320616e6420616d6f756e7473206c656e6774682060008201527f6d69736d61746368000000000000000000000000000000000000000000000000602082015250565b6000613c6e6028836128d2565b9150613c7982613c12565b604082019050919050565b60006020820190508181036000830152613c9d81613c61565b9050919050565b7f455243313135353a207472616e7366657220746f20746865207a65726f20616460008201527f6472657373000000000000000000000000000000000000000000000000000000602082015250565b6000613d006025836128d2565b9150613d0b82613ca4565b604082019050919050565b60006020820190508181036000830152613d2f81613cf3565b9050919050565b7f455243313135353a20696e73756666696369656e742062616c616e636520666f60008201527f72207472616e7366657200000000000000000000000000000000000000000000602082015250565b6000613d92602a836128d2565b9150613d9d82613d36565b604082019050919050565b60006020820190508181036000830152613dc181613d85565b9050919050565b60006040820190508181036000830152613de28185612efb565b90508181036020830152613df68184612efb565b90509392505050565b7f455243313135353a206d696e7420746f20746865207a65726f2061646472657360008201527f7300000000000000000000000000000000000000000000000000000000000000602082015250565b6000613e5b6021836128d2565b9150613e6682613dff565b604082019050919050565b60006020820190508181036000830152613e8a81613e4e565b9050919050565b6000604082019050613ea660008301856127b5565b613eb360208301846127b5565b9392505050565b600081519050919050565b600082825260208201905092915050565b6000613ee182613eba565b613eeb8185613ec5565b9350613efb8185602086016128e3565b613f048161290d565b840191505092915050565b600060a082019050613f246000830188613137565b613f316020830187613137565b8181036040830152613f438186612efb565b90508181036060830152613f578185612efb565b90508181036080830152613f6b8184613ed6565b90509695505050505050565b600081519050613f868161280b565b92915050565b600060208284031215613fa257613fa16126d7565b5b6000613fb084828501613f77565b91505092915050565b60008160e01c9050919050565b600060033d1115613fe55760046000803e613fe2600051613fb9565b90505b90565b600060443d1061407557613ffa6126cd565b60043d036004823e80513d602482011167ffffffffffffffff82111715614022575050614075565b808201805167ffffffffffffffff8111156140405750505050614075565b80602083010160043d03850181111561405d575050505050614075565b61406c82602001850186612a61565b82955050505050505b90565b7f455243313135353a207472616e7366657220746f206e6f6e204552433131353560008201527f526563656976657220696d706c656d656e746572000000000000000000000000602082015250565b60006140d46034836128d2565b91506140df82614078565b604082019050919050565b60006020820190508181036000830152614103816140c7565b9050919050565b7f455243313135353a204552433131353552656365697665722072656a6563746560008201527f6420746f6b656e73000000000000000000000000000000000000000000000000602082015250565b60006141666028836128d2565b91506141718261410a565b604082019050919050565b6000602082019050818103600083015261419581614159565b9050919050565b600060a0820190506141b16000830188613137565b6141be6020830187613137565b6141cb60408301866127b5565b6141d860608301856127b5565b81810360808301526141ea8184613ed6565b9050969550505050505056fea2646970667358221220a6ac18f159a714ced75abccba1df5ab85739769afb3dd5ce708a2f43a3536b4464736f6c6343000813003368747470733a2f2f626166796265696867706c6363683572733666357078326132683332707834656b35636a716c3569633363647535676e726f3535776171767035712e697066732e7733732e6c696e6b2f746f6b656e2d312e6a736f6e68747470733a2f2f697066732e696f2f697066732f62616679626569686a6a6b77647278786a6e757765766c7174716d683369656763616463333273696f34776d6f37627632676266333471733334612f7b69647d2e6a736f6e68747470733a2f2f6261667962656964367964756174346f6e356634733636717434786c79717266697862677a796d356b6b7670656e336d646f637867717277726c792e697066732e7733732e6c696e6b2f746f6b656e2d322e6a736f6e",
  "immutableReferences": {},
  "source": "// SPDX-License-Identifier: MIT\npragma solidity ^0.8.0;\n\nimport \"@openzeppelin/contracts/token/ERC1155/ERC1155.sol\";\nimport \"@openzeppelin/contracts/token/ERC1155/utils/ERC1155Holder.sol\";\nimport \"@openzeppelin/contracts/utils/Strings.sol\";\nimport \"@openzeppelin/contracts/utils/Counters.sol\";\n\ncontract Metaedu is ERC1155, ERC1155Holder {\n    uint256 public constant Rock = 1;\n    uint256 public constant Paper = 2;\n\n    event Minted(\n        uint256 indexed tokenId,\n        address indexed owner,\n        address indexed nftAddress,\n        uint256 quantity\n    );\n    event ShareOwnership(\n        uint256 indexed tokenId,\n        address indexed owner,\n        uint256 quantity\n    );\n    event ItemAddedForSale(\n        uint256 tokenId,\n        address owner,\n        uint256 quantity,\n        uint256 price\n    );\n    event ItemAddedForRent(\n        uint256 tokenId,\n        address owner,\n        uint256 quantity,\n        uint256 price\n    );\n    event ItemBuy(\n        address buyer,\n        address seller,\n        uint256 tokenId,\n        uint256 price\n    ); \n    event ItemRent(\n        address user,\n        address owner,\n        uint256 tokenId,\n        uint256 price,\n        uint256 day\n    ); \n    event itemSold(uint256 id, address buyer, uint256 price);\n    struct ItemForSale {\n        uint256 tokenId;\n        uint256 quantity;\n        address payable seller;\n        uint256 price;\n        bool isSold;\n    }\n\n    struct ItemForRent {\n        uint256 tokenId;\n        uint256 quantity;\n        address payable owner;\n        address user;\n        uint256 price;\n        uint256 expirationTime;\n    }\n\n    address public contractAddress = 0xE0f5206BBD039e7b0592d8918820024e2a7437b9;\n\n    mapping(uint256 => string) private _uris;\n    mapping(uint256 => uint256) private _quantities;\n    mapping(uint256 => uint256) private _sharedOwnershipMapping;\n\n    mapping(uint256 => mapping(address => ItemForSale)) public _itemsForSale;\n    mapping(uint256 => mapping(address => ItemForRent)) public _itemsForRent;\n\n    using Counters for Counters.Counter;\n\n    Counters.Counter private _tokenIds;\n\n    modifier OnlyItemOwner(uint256 _tokenId) {\n        require(\n            balanceOf(msg.sender, _tokenId) != 0,\n            \"Sender does not own the item\"\n        );\n        _;\n    }\n    \n    modifier OnlyNonFungible(uint256 _tokenId) {\n        require(\n            _quantities[_tokenId] == 1,\n            \"Token is fungible\"\n        );\n        _;\n    }\n\n    modifier ItemIsAvailableForBuy(uint256 _tokenId, address _seller) {\n        require(\n            _itemsForSale[_tokenId][_seller].isSold == false,\n            \"Token is sold\"\n        );\n        _;\n    }\n\n    modifier ItemIsAvailableForRent(uint256 _tokenId, address _seller, uint256 datetime) {\n        require(\n            _itemsForRent[_tokenId][_seller].expirationTime <= datetime || _itemsForRent[_tokenId][_seller].expirationTime == 0,\n            \"Token is rented\"\n        );\n        _;\n    }\n\n    modifier ItemIsNotRented(uint256 _tokenId, address _owner, uint256 datetime) {\n        require(\n            _itemsForRent[_tokenId][_owner].expirationTime <= datetime || _itemsForRent[_tokenId][_owner].expirationTime == 0,\n            \"Token is rented\"\n        );\n        _;\n    }\n    \n    modifier BuyerIsValid(uint256 _tokenId, address _seller) {\n        require(\n            msg.sender != _seller,\n            \"Buyer is not valid\"\n        );\n        _;\n    }\n\n    modifier UserIsValid(uint256 _tokenId, address _owner) {\n        require(\n            msg.sender != _owner,\n            \"Buyer is not valid\"\n        );\n        _;\n    }\n\n     modifier BalanceComplied(uint256 _price) {\n        require(\n            msg.value >= _price,\n            \"Balance is not enough\"\n        );\n        _;\n    }\n\n    modifier ItemIsAvailableForSale(uint256 _tokenId, uint256 _quantity) {\n        uint256 itemQuantity = balanceOf(msg.sender, _tokenId);\n        uint256 sellItemQuantity = _itemsForSale[_tokenId][msg.sender].quantity;\n        uint256 availableItemQuantity = itemQuantity - sellItemQuantity;\n        require(\n            availableItemQuantity > _quantity,\n            \"Item is not available for sale\"\n        );\n        _;\n    }\n\n    constructor()\n        ERC1155(\n            \"https://ipfs.io/ipfs/bafybeihjjkwdrxxjnuwevlqtqmh3iegcadc32sio4wmo7bv2gbf34qs34a/{id}.json\"\n        )\n    {\n        contractAddress = address(this);\n        mint(20, \"https://bafybeihgplcch5rs6f5px2a2h32px4ek5cjql5ic3cdu5gnro55waqvp5q.ipfs.w3s.link/token-1.json\");\n        mint(1, \"https://bafybeid6yduat4on5f4s66qt4xlyqrfixbgzym5kkvpen3mdocxgqrwrly.ipfs.w3s.link/token-2.json\");\n    }\n\n    function supportsInterface(bytes4 interfaceId) public view virtual override(ERC1155, ERC1155Receiver) returns (bool) {\n        return super.supportsInterface(interfaceId);\n    }\n\n    function mint(uint256 _quantity, string memory _uri) public {\n        _tokenIds.increment();\n        uint256 tokenId = _tokenIds.current();\n        _mint(msg.sender, tokenId, _quantity, \"\");\n        _uris[tokenId] = _uri;\n        _quantities[tokenId] = _quantity;\n\n        emit Minted(tokenId, msg.sender, address(this), _quantity);\n    }\n\n    function shareOwnership(uint256 _tokenId, uint256 _quantity) ItemIsNotRented(_tokenId, msg.sender, 0) public {        \n        safeTransferFrom(\n            msg.sender,\n            contractAddress,\n            _tokenId,\n            _quantity,\n            \"0x0\"\n        );\n\n        mint(_quantity, \"\");\n        _sharedOwnershipMapping[_tokenId] = _tokenIds.current();\n\n        emit ShareOwnership(_tokenId, msg.sender, _quantity);\n    }\n\n    function sharedOwnershipTokenId(uint256 _tokenId) public view returns (uint256) {\n        return _sharedOwnershipMapping[_tokenId];\n    }\n\n    function quantity(uint256 _tokenId) public view returns (uint256) {\n        return _quantities[_tokenId];\n    }\n\n    function uri(uint256 _tokenId)\n        override\n        public\n        view\n        returns (string memory)\n    {\n        return _uris[_tokenId];\n    }\n\n    function safeTransferFrom(\n        address from,\n        address to,\n        uint256 id,\n        uint256 amount,\n        bytes memory data\n    ) public virtual override {\n        // require(\n        //     from == _msgSender() || isApprovedForAll(from, _msgSender()),\n        //     \"ERC1155: caller is not owner nor approved\"\n        // );\n        _safeTransferFrom(from, to, id, amount, data);\n    }\n\n    function buy(\n        uint256 _tokenId,\n        address _seller\n    ) external payable BuyerIsValid(_tokenId, _seller) BalanceComplied(_itemsForSale[_tokenId][_seller].price) ItemIsAvailableForBuy(_tokenId, _seller) {\n        safeTransferFrom(_seller, msg.sender, _tokenId, _itemsForSale[_tokenId][_seller].quantity, '0x0');\n        _itemsForSale[_tokenId][_seller].isSold = true;\n    }\n    \n    function rent(\n        uint256 _tokenId,\n        uint256 _day,\n        uint256 _datetime,\n        address _owner\n    ) external payable UserIsValid(_tokenId, _owner) BalanceComplied(_itemsForRent[_tokenId][_owner].price * _day) ItemIsAvailableForRent(_tokenId, _owner, _datetime) {\n        _itemsForRent[_tokenId][_owner].expirationTime = _datetime + (_day * 3600);\n        _itemsForRent[_tokenId][_owner].user = msg.sender;\n    }\n\n    function putItemForSale(\n        uint256 _tokenId,\n        uint256 _price,\n        uint256 _quantity\n    ) external OnlyItemOwner(_tokenId) returns (uint256) {\n        _itemsForSale[_tokenId][msg.sender] = ItemForSale({\n            tokenId: _tokenId,\n            quantity: _quantity,\n            seller: payable(msg.sender),\n            price: _price,\n            isSold: false\n        });\n\n        emit ItemAddedForSale(_tokenId, msg.sender, _quantity, _price);\n        return _tokenId;\n    }\n\n    function putItemForRent(\n        uint256 _tokenId,\n        uint256 _price,\n        uint256 _quantity\n    ) external OnlyItemOwner(_tokenId) OnlyNonFungible(_tokenId) returns (uint256) {\n        _itemsForRent[_tokenId][msg.sender] = ItemForRent({\n            tokenId: _tokenId,\n            quantity: _quantity,\n            owner: payable(msg.sender),\n            user: msg.sender,\n            price: _price,\n            expirationTime: 0\n        });\n\n        emit ItemAddedForRent(_tokenId, msg.sender, _quantity, _price);\n        return _tokenId;\n    }\n}\n",
  "sourcePath": "/Users/renakaagusta/Documents/TA/project/contract/1155/contracts/Metaedu.sol",
  "compiler": {
    "name": "solc",
    "version": "0.8.19+commit.7dd6d404.Emscripten.clang"
  },
  "schemaVersion": "3.4.10",
  "updatedAt": "2023-03-04T13:22:47.136Z",
  "devdoc": {
    "events": {
      "ApprovalForAll(address,address,bool)": {
        "details": "Emitted when `account` grants or revokes permission to `operator` to transfer their tokens, according to `approved`."
      },
      "TransferBatch(address,address,address,uint256[],uint256[])": {
        "details": "Equivalent to multiple {TransferSingle} events, where `operator`, `from` and `to` are the same for all transfers."
      },
      "TransferSingle(address,address,address,uint256,uint256)": {
        "details": "Emitted when `value` tokens of token type `id` are transferred from `from` to `to` by `operator`."
      },
      "URI(string,uint256)": {
        "details": "Emitted when the URI for token type `id` changes to `value`, if it is a non-programmatic URI. If an {URI} event was emitted for `id`, the standard https://eips.ethereum.org/EIPS/eip-1155#metadata-extensions[guarantees] that `value` will equal the value returned by {IERC1155MetadataURI-uri}."
      }
    },
    "kind": "dev",
    "methods": {
      "balanceOf(address,uint256)": {
        "details": "See {IERC1155-balanceOf}. Requirements: - `account` cannot be the zero address."
      },
      "balanceOfBatch(address[],uint256[])": {
        "details": "See {IERC1155-balanceOfBatch}. Requirements: - `accounts` and `ids` must have the same length."
      },
      "isApprovedForAll(address,address)": {
        "details": "See {IERC1155-isApprovedForAll}."
      },
      "safeBatchTransferFrom(address,address,uint256[],uint256[],bytes)": {
        "details": "See {IERC1155-safeBatchTransferFrom}."
      },
      "safeTransferFrom(address,address,uint256,uint256,bytes)": {
        "details": "See {IERC1155-safeTransferFrom}."
      },
      "setApprovalForAll(address,bool)": {
        "details": "See {IERC1155-setApprovalForAll}."
      }
    },
    "version": 1
  },
  "userdoc": {
    "kind": "user",
    "methods": {},
    "version": 1
  }
}