{
  "contractName": "rockPaperMetaedu",
  "abi": [
    {
      "inputs": [],
      "stateMutability": "nonpayable",
      "type": "constructor"
    },
    {
      "anonymous": false,
      "inputs": [
        {
          "indexed": true,
          "internalType": "address",
          "name": "account",
          "type": "address"
        },
        {
          "indexed": true,
          "internalType": "address",
          "name": "operator",
          "type": "address"
        },
        {
          "indexed": false,
          "internalType": "bool",
          "name": "approved",
          "type": "bool"
        }
      ],
      "name": "ApprovalForAll",
      "type": "event"
    },
    {
      "anonymous": false,
      "inputs": [
        {
          "indexed": true,
          "internalType": "address",
          "name": "operator",
          "type": "address"
        },
        {
          "indexed": true,
          "internalType": "address",
          "name": "from",
          "type": "address"
        },
        {
          "indexed": true,
          "internalType": "address",
          "name": "to",
          "type": "address"
        },
        {
          "indexed": false,
          "internalType": "uint256[]",
          "name": "ids",
          "type": "uint256[]"
        },
        {
          "indexed": false,
          "internalType": "uint256[]",
          "name": "values",
          "type": "uint256[]"
        }
      ],
      "name": "TransferBatch",
      "type": "event"
    },
    {
      "anonymous": false,
      "inputs": [
        {
          "indexed": true,
          "internalType": "address",
          "name": "operator",
          "type": "address"
        },
        {
          "indexed": true,
          "internalType": "address",
          "name": "from",
          "type": "address"
        },
        {
          "indexed": true,
          "internalType": "address",
          "name": "to",
          "type": "address"
        },
        {
          "indexed": false,
          "internalType": "uint256",
          "name": "id",
          "type": "uint256"
        },
        {
          "indexed": false,
          "internalType": "uint256",
          "name": "value",
          "type": "uint256"
        }
      ],
      "name": "TransferSingle",
      "type": "event"
    },
    {
      "anonymous": false,
      "inputs": [
        {
          "indexed": false,
          "internalType": "string",
          "name": "value",
          "type": "string"
        },
        {
          "indexed": true,
          "internalType": "uint256",
          "name": "id",
          "type": "uint256"
        }
      ],
      "name": "URI",
      "type": "event"
    },
    {
      "inputs": [],
      "name": "Paper",
      "outputs": [
        {
          "internalType": "uint256",
          "name": "",
          "type": "uint256"
        }
      ],
      "stateMutability": "view",
      "type": "function"
    },
    {
      "inputs": [],
      "name": "Rock",
      "outputs": [
        {
          "internalType": "uint256",
          "name": "",
          "type": "uint256"
        }
      ],
      "stateMutability": "view",
      "type": "function"
    },
    {
      "inputs": [],
      "name": "Metaedu",
      "outputs": [
        {
          "internalType": "uint256",
          "name": "",
          "type": "uint256"
        }
      ],
      "stateMutability": "view",
      "type": "function"
    },
    {
      "inputs": [
        {
          "internalType": "address",
          "name": "account",
          "type": "address"
        },
        {
          "internalType": "uint256",
          "name": "id",
          "type": "uint256"
        }
      ],
      "name": "balanceOf",
      "outputs": [
        {
          "internalType": "uint256",
          "name": "",
          "type": "uint256"
        }
      ],
      "stateMutability": "view",
      "type": "function"
    },
    {
      "inputs": [
        {
          "internalType": "address[]",
          "name": "accounts",
          "type": "address[]"
        },
        {
          "internalType": "uint256[]",
          "name": "ids",
          "type": "uint256[]"
        }
      ],
      "name": "balanceOfBatch",
      "outputs": [
        {
          "internalType": "uint256[]",
          "name": "",
          "type": "uint256[]"
        }
      ],
      "stateMutability": "view",
      "type": "function"
    },
    {
      "inputs": [
        {
          "internalType": "address",
          "name": "account",
          "type": "address"
        },
        {
          "internalType": "address",
          "name": "operator",
          "type": "address"
        }
      ],
      "name": "isApprovedForAll",
      "outputs": [
        {
          "internalType": "bool",
          "name": "",
          "type": "bool"
        }
      ],
      "stateMutability": "view",
      "type": "function"
    },
    {
      "inputs": [
        {
          "internalType": "address",
          "name": "from",
          "type": "address"
        },
        {
          "internalType": "address",
          "name": "to",
          "type": "address"
        },
        {
          "internalType": "uint256[]",
          "name": "ids",
          "type": "uint256[]"
        },
        {
          "internalType": "uint256[]",
          "name": "amounts",
          "type": "uint256[]"
        },
        {
          "internalType": "bytes",
          "name": "data",
          "type": "bytes"
        }
      ],
      "name": "safeBatchTransferFrom",
      "outputs": [],
      "stateMutability": "nonpayable",
      "type": "function"
    },
    {
      "inputs": [
        {
          "internalType": "address",
          "name": "from",
          "type": "address"
        },
        {
          "internalType": "address",
          "name": "to",
          "type": "address"
        },
        {
          "internalType": "uint256",
          "name": "id",
          "type": "uint256"
        },
        {
          "internalType": "uint256",
          "name": "amount",
          "type": "uint256"
        },
        {
          "internalType": "bytes",
          "name": "data",
          "type": "bytes"
        }
      ],
      "name": "safeTransferFrom",
      "outputs": [],
      "stateMutability": "nonpayable",
      "type": "function"
    },
    {
      "inputs": [
        {
          "internalType": "address",
          "name": "operator",
          "type": "address"
        },
        {
          "internalType": "bool",
          "name": "approved",
          "type": "bool"
        }
      ],
      "name": "setApprovalForAll",
      "outputs": [],
      "stateMutability": "nonpayable",
      "type": "function"
    },
    {
      "inputs": [
        {
          "internalType": "bytes4",
          "name": "interfaceId",
          "type": "bytes4"
        }
      ],
      "name": "supportsInterface",
      "outputs": [
        {
          "internalType": "bool",
          "name": "",
          "type": "bool"
        }
      ],
      "stateMutability": "view",
      "type": "function"
    },
    {
      "inputs": [
        {
          "internalType": "uint256",
          "name": "_tokenid",
          "type": "uint256"
        }
      ],
      "name": "uri",
      "outputs": [
        {
          "internalType": "string",
          "name": "",
          "type": "string"
        }
      ],
      "stateMutability": "pure",
      "type": "function"
    }
  ],
  "bytecode": "0x60806040523480156200001157600080fd5b506040518060800160405280605a815260200162003712605a91396200003d81620000b260201b60201c565b50620000623360018060405180602001604052806000815250620000c760201b60201c565b62000087336002600160405180602001604052806000815250620000c760201b60201c565b620000ac336003600160405180602001604052806000815250620000c760201b60201c565b62000e82565b8060029081620000c39190620007a2565b5050565b600073ffffffffffffffffffffffffffffffffffffffff168473ffffffffffffffffffffffffffffffffffffffff160362000139576040517f08c379a0000000000000000000000000000000000000000000000000000000008152600401620001309062000910565b60405180910390fd5b60006200014b6200028b60201b60201c565b9050620001848160008762000166886200029360201b60201c565b62000177886200029360201b60201c565b876200031460201b60201c565b8260008086815260200190815260200160002060008773ffffffffffffffffffffffffffffffffffffffff1673ffffffffffffffffffffffffffffffffffffffff1681526020019081526020016000206000828254620001e5919062000961565b925050819055508473ffffffffffffffffffffffffffffffffffffffff16600073ffffffffffffffffffffffffffffffffffffffff168273ffffffffffffffffffffffffffffffffffffffff167fc3d58168c5ae7397731d063d5bbf3d657854427343f4c083240f7aacaa2d0f62878760405162000265929190620009ad565b60405180910390a462000284816000878787876200031c60201b60201c565b5050505050565b600033905090565b60606000600167ffffffffffffffff811115620002b557620002b462000533565b5b604051908082528060200260200182016040528015620002e45781602001602082028036833780820191505090505b5090508281600081518110620002ff57620002fe620009da565b5b60200260200101818152505080915050919050565b505050505050565b620003488473ffffffffffffffffffffffffffffffffffffffff166200051560201b620008a41760201c565b156200050d578373ffffffffffffffffffffffffffffffffffffffff1663f23a6e6187878686866040518663ffffffff1660e01b81526004016200039195949392919062000ae8565b6020604051808303816000875af1925050508015620003d057506040513d601f19601f82011682018060405250810190620003cd919062000bb8565b60015b6200048157620003df62000bf7565b806308c379a003620004425750620003f662000c52565b8062000403575062000444565b806040517f08c379a000000000000000000000000000000000000000000000000000000000815260040162000439919062000d2e565b60405180910390fd5b505b6040517f08c379a0000000000000000000000000000000000000000000000000000000008152600401620004789062000dc8565b60405180910390fd5b63f23a6e6160e01b7bffffffffffffffffffffffffffffffffffffffffffffffffffffffff1916817bffffffffffffffffffffffffffffffffffffffffffffffffffffffff1916146200050b576040517f08c379a0000000000000000000000000000000000000000000000000000000008152600401620005029062000e60565b60405180910390fd5b505b505050505050565b600080823b905060008111915050919050565b600081519050919050565b7f4e487b7100000000000000000000000000000000000000000000000000000000600052604160045260246000fd5b7f4e487b7100000000000000000000000000000000000000000000000000000000600052602260045260246000fd5b60006002820490506001821680620005aa57607f821691505b602082108103620005c057620005bf62000562565b5b50919050565b60008190508160005260206000209050919050565b60006020601f8301049050919050565b600082821b905092915050565b6000600883026200062a7fffffffffffffffffffffffffffffffffffffffffffffffffffffffffffffffff82620005eb565b620006368683620005eb565b95508019841693508086168417925050509392505050565b6000819050919050565b6000819050919050565b6000620006836200067d62000677846200064e565b62000658565b6200064e565b9050919050565b6000819050919050565b6200069f8362000662565b620006b7620006ae826200068a565b848454620005f8565b825550505050565b600090565b620006ce620006bf565b620006db81848462000694565b505050565b5b818110156200070357620006f7600082620006c4565b600181019050620006e1565b5050565b601f82111562000752576200071c81620005c6565b6200072784620005db565b8101602085101562000737578190505b6200074f6200074685620005db565b830182620006e0565b50505b505050565b600082821c905092915050565b6000620007776000198460080262000757565b1980831691505092915050565b600062000792838362000764565b9150826002028217905092915050565b620007ad8262000528565b67ffffffffffffffff811115620007c957620007c862000533565b5b620007d5825462000591565b620007e282828562000707565b600060209050601f8311600181146200081a576000841562000805578287015190505b62000811858262000784565b86555062000881565b601f1984166200082a86620005c6565b60005b8281101562000854578489015182556001820191506020850194506020810190506200082d565b8683101562000874578489015162000870601f89168262000764565b8355505b6001600288020188555050505b505050505050565b600082825260208201905092915050565b7f455243313135353a206d696e7420746f20746865207a65726f2061646472657360008201527f7300000000000000000000000000000000000000000000000000000000000000602082015250565b6000620008f860218362000889565b915062000905826200089a565b604082019050919050565b600060208201905081810360008301526200092b81620008e9565b9050919050565b7f4e487b7100000000000000000000000000000000000000000000000000000000600052601160045260246000fd5b60006200096e826200064e565b91506200097b836200064e565b925082820190508082111562000996576200099562000932565b5b92915050565b620009a7816200064e565b82525050565b6000604082019050620009c460008301856200099c565b620009d360208301846200099c565b9392505050565b7f4e487b7100000000000000000000000000000000000000000000000000000000600052603260045260246000fd5b600073ffffffffffffffffffffffffffffffffffffffff82169050919050565b600062000a368262000a09565b9050919050565b62000a488162000a29565b82525050565b600081519050919050565b600082825260208201905092915050565b60005b8381101562000a8a57808201518184015260208101905062000a6d565b60008484015250505050565b6000601f19601f8301169050919050565b600062000ab48262000a4e565b62000ac0818562000a59565b935062000ad281856020860162000a6a565b62000add8162000a96565b840191505092915050565b600060a08201905062000aff600083018862000a3d565b62000b0e602083018762000a3d565b62000b1d60408301866200099c565b62000b2c60608301856200099c565b818103608083015262000b40818462000aa7565b90509695505050505050565b6000604051905090565b600080fd5b60007fffffffff0000000000000000000000000000000000000000000000000000000082169050919050565b62000b928162000b5b565b811462000b9e57600080fd5b50565b60008151905062000bb28162000b87565b92915050565b60006020828403121562000bd15762000bd062000b56565b5b600062000be18482850162000ba1565b91505092915050565b60008160e01c9050919050565b600060033d111562000c195760046000803e62000c1660005162000bea565b90505b90565b62000c278262000a96565b810181811067ffffffffffffffff8211171562000c495762000c4862000533565b5b80604052505050565b600060443d1062000cea5762000c6762000b4c565b60043d036004823e80513d602482011167ffffffffffffffff8211171562000c9157505062000cea565b808201805167ffffffffffffffff81111562000cb1575050505062000cea565b80602083010160043d03850181111562000cd057505050505062000cea565b62000ce18260200185018662000c1c565b82955050505050505b90565b600062000cfa8262000528565b62000d06818562000889565b935062000d1881856020860162000a6a565b62000d238162000a96565b840191505092915050565b6000602082019050818103600083015262000d4a818462000ced565b905092915050565b7f455243313135353a207472616e7366657220746f206e6f6e204552433131353560008201527f526563656976657220696d706c656d656e746572000000000000000000000000602082015250565b600062000db060348362000889565b915062000dbd8262000d52565b604082019050919050565b6000602082019050818103600083015262000de38162000da1565b9050919050565b7f455243313135353a204552433131353552656365697665722072656a6563746560008201527f6420746f6b656e73000000000000000000000000000000000000000000000000602082015250565b600062000e4860288362000889565b915062000e558262000dea565b604082019050919050565b6000602082019050818103600083015262000e7b8162000e39565b9050919050565b6128808062000e926000396000f3fe608060405234801561001057600080fd5b50600436106100a85760003560e01c80634e1273f4116100715780634e1273f41461017757806360689557146101a7578063a22cb465146101c5578063af769eff146101e1578063e985e9c5146101ff578063f242432a1461022f576100a8565b8062fdd58e146100ad57806301ffc9a7146100dd5780630e89341c1461010d57806325ea269e1461013d5780632eb2c2d61461015b575b600080fd5b6100c760048036038101906100c291906114f5565b61024b565b6040516100d49190611544565b60405180910390f35b6100f760048036038101906100f291906115b7565b610313565b60405161010491906115ff565b60405180910390f35b6101276004803603810190610122919061161a565b6103f5565b60405161013491906116d7565b60405180910390f35b610145610426565b6040516101529190611544565b60405180910390f35b610175600480360381019061017091906118f6565b61042b565b005b610191600480360381019061018c9190611a88565b6104cc565b60405161019e9190611bbe565b60405180910390f35b6101af6105e5565b6040516101bc9190611544565b60405180910390f35b6101df60048036038101906101da9190611c0c565b6105ea565b005b6101e961076a565b6040516101f69190611544565b60405180910390f35b61021960048036038101906102149190611c4c565b61076f565b60405161022691906115ff565b60405180910390f35b61024960048036038101906102449190611c8c565b610803565b005b60008073ffffffffffffffffffffffffffffffffffffffff168373ffffffffffffffffffffffffffffffffffffffff16036102bb576040517f08c379a00000000000000000000000000000000000000000000000000000000081526004016102b290611d95565b60405180910390fd5b60008083815260200190815260200160002060008473ffffffffffffffffffffffffffffffffffffffff1673ffffffffffffffffffffffffffffffffffffffff16815260200190815260200160002054905092915050565b60007fd9b67a26000000000000000000000000000000000000000000000000000000007bffffffffffffffffffffffffffffffffffffffffffffffffffffffff1916827bffffffffffffffffffffffffffffffffffffffffffffffffffffffff191614806103de57507f0e89341c000000000000000000000000000000000000000000000000000000007bffffffffffffffffffffffffffffffffffffffffffffffffffffffff1916827bffffffffffffffffffffffffffffffffffffffffffffffffffffffff1916145b806103ee57506103ed826108b7565b5b9050919050565b606061040082610921565b6040516020016104109190611ed5565b6040516020818303038152906040529050919050565b600381565b610433610a81565b73ffffffffffffffffffffffffffffffffffffffff168573ffffffffffffffffffffffffffffffffffffffff161480610479575061047885610473610a81565b61076f565b5b6104b8576040517f08c379a00000000000000000000000000000000000000000000000000000000081526004016104af90611f74565b60405180910390fd5b6104c58585858585610a89565b5050505050565b60608151835114610512576040517f08c379a000000000000000000000000000000000000000000000000000000000815260040161050990612006565b60405180910390fd5b6000835167ffffffffffffffff81111561052f5761052e6116fe565b5b60405190808252806020026020018201604052801561055d5781602001602082028036833780820191505090505b50905060005b84518110156105da576105aa85828151811061058257610581612026565b5b602002602001015185838151811061059d5761059c612026565b5b602002602001015161024b565b8282815181106105bd576105bc612026565b5b602002602001018181525050806105d390612084565b9050610563565b508091505092915050565b600181565b8173ffffffffffffffffffffffffffffffffffffffff16610609610a81565b73ffffffffffffffffffffffffffffffffffffffff160361065f576040517f08c379a00000000000000000000000000000000000000000000000000000000081526004016106569061213e565b60405180910390fd5b806001600061066c610a81565b73ffffffffffffffffffffffffffffffffffffffff1673ffffffffffffffffffffffffffffffffffffffff16815260200190815260200160002060008473ffffffffffffffffffffffffffffffffffffffff1673ffffffffffffffffffffffffffffffffffffffff16815260200190815260200160002060006101000a81548160ff0219169083151502179055508173ffffffffffffffffffffffffffffffffffffffff16610719610a81565b73ffffffffffffffffffffffffffffffffffffffff167f17307eab39ab6107e8899845ad3d59bd9653f200f220920489ca2b5937696c318360405161075e91906115ff565b60405180910390a35050565b600281565b6000600160008473ffffffffffffffffffffffffffffffffffffffff1673ffffffffffffffffffffffffffffffffffffffff16815260200190815260200160002060008373ffffffffffffffffffffffffffffffffffffffff1673ffffffffffffffffffffffffffffffffffffffff16815260200190815260200160002060009054906101000a900460ff16905092915050565b61080b610a81565b73ffffffffffffffffffffffffffffffffffffffff168573ffffffffffffffffffffffffffffffffffffffff16148061085157506108508561084b610a81565b61076f565b5b610890576040517f08c379a0000000000000000000000000000000000000000000000000000000008152600401610887906121d0565b60405180910390fd5b61089d8585858585610d9c565b5050505050565b600080823b905060008111915050919050565b60007f01ffc9a7000000000000000000000000000000000000000000000000000000007bffffffffffffffffffffffffffffffffffffffffffffffffffffffff1916827bffffffffffffffffffffffffffffffffffffffffffffffffffffffff1916149050919050565b606060008203610968576040518060400160405280600181526020017f30000000000000000000000000000000000000000000000000000000000000008152509050610a7c565b600082905060005b6000821461099a57808061098390612084565b915050600a82610993919061221f565b9150610970565b60008167ffffffffffffffff8111156109b6576109b56116fe565b5b6040519080825280601f01601f1916602001820160405280156109e85781602001600182028036833780820191505090505b5090505b60008514610a7557600182610a019190612250565b9150600a85610a109190612284565b6030610a1c91906122b5565b60f81b818381518110610a3257610a31612026565b5b60200101907effffffffffffffffffffffffffffffffffffffffffffffffffffffffffffff1916908160001a905350600a85610a6e919061221f565b94506109ec565b8093505050505b919050565b600033905090565b8151835114610acd576040517f08c379a0000000000000000000000000000000000000000000000000000000008152600401610ac49061235b565b60405180910390fd5b600073ffffffffffffffffffffffffffffffffffffffff168473ffffffffffffffffffffffffffffffffffffffff1603610b3c576040517f08c379a0000000000000000000000000000000000000000000000000000000008152600401610b33906123ed565b60405180910390fd5b6000610b46610a81565b9050610b5681878787878761101d565b60005b8451811015610d07576000858281518110610b7757610b76612026565b5b602002602001015190506000858381518110610b9657610b95612026565b5b60200260200101519050600080600084815260200190815260200160002060008b73ffffffffffffffffffffffffffffffffffffffff1673ffffffffffffffffffffffffffffffffffffffff16815260200190815260200160002054905081811015610c37576040517f08c379a0000000000000000000000000000000000000000000000000000000008152600401610c2e9061247f565b60405180910390fd5b81810360008085815260200190815260200160002060008c73ffffffffffffffffffffffffffffffffffffffff1673ffffffffffffffffffffffffffffffffffffffff168152602001908152602001600020819055508160008085815260200190815260200160002060008b73ffffffffffffffffffffffffffffffffffffffff1673ffffffffffffffffffffffffffffffffffffffff1681526020019081526020016000206000828254610cec91906122b5565b9250508190555050505080610d0090612084565b9050610b59565b508473ffffffffffffffffffffffffffffffffffffffff168673ffffffffffffffffffffffffffffffffffffffff168273ffffffffffffffffffffffffffffffffffffffff167f4a39dc06d4c0dbc64b70af90fd698a233a518aa5d07e595d983b8c0526c8f7fb8787604051610d7e92919061249f565b60405180910390a4610d94818787878787611025565b505050505050565b600073ffffffffffffffffffffffffffffffffffffffff168473ffffffffffffffffffffffffffffffffffffffff1603610e0b576040517f08c379a0000000000000000000000000000000000000000000000000000000008152600401610e02906123ed565b60405180910390fd5b6000610e15610a81565b9050610e35818787610e26886111fc565b610e2f886111fc565b8761101d565b600080600086815260200190815260200160002060008873ffffffffffffffffffffffffffffffffffffffff1673ffffffffffffffffffffffffffffffffffffffff16815260200190815260200160002054905083811015610ecc576040517f08c379a0000000000000000000000000000000000000000000000000000000008152600401610ec39061247f565b60405180910390fd5b83810360008087815260200190815260200160002060008973ffffffffffffffffffffffffffffffffffffffff1673ffffffffffffffffffffffffffffffffffffffff168152602001908152602001600020819055508360008087815260200190815260200160002060008873ffffffffffffffffffffffffffffffffffffffff1673ffffffffffffffffffffffffffffffffffffffff1681526020019081526020016000206000828254610f8191906122b5565b925050819055508573ffffffffffffffffffffffffffffffffffffffff168773ffffffffffffffffffffffffffffffffffffffff168373ffffffffffffffffffffffffffffffffffffffff167fc3d58168c5ae7397731d063d5bbf3d657854427343f4c083240f7aacaa2d0f628888604051610ffe9291906124d6565b60405180910390a4611014828888888888611276565b50505050505050565b505050505050565b6110448473ffffffffffffffffffffffffffffffffffffffff166108a4565b156111f4578373ffffffffffffffffffffffffffffffffffffffff1663bc197c8187878686866040518663ffffffff1660e01b815260040161108a959493929190612563565b6020604051808303816000875af19250505080156110c657506040513d601f19601f820116820180604052508101906110c391906125e0565b60015b61116b576110d261261a565b806308c379a00361112e57506110e661263c565b806110f15750611130565b806040517f08c379a000000000000000000000000000000000000000000000000000000000815260040161112591906116d7565b60405180910390fd5b505b6040517f08c379a00000000000000000000000000000000000000000000000000000000081526004016111629061273e565b60405180910390fd5b63bc197c8160e01b7bffffffffffffffffffffffffffffffffffffffffffffffffffffffff1916817bffffffffffffffffffffffffffffffffffffffffffffffffffffffff1916146111f2576040517f08c379a00000000000000000000000000000000000000000000000000000000081526004016111e9906127d0565b60405180910390fd5b505b505050505050565b60606000600167ffffffffffffffff81111561121b5761121a6116fe565b5b6040519080825280602002602001820160405280156112495781602001602082028036833780820191505090505b509050828160008151811061126157611260612026565b5b60200260200101818152505080915050919050565b6112958473ffffffffffffffffffffffffffffffffffffffff166108a4565b15611445578373ffffffffffffffffffffffffffffffffffffffff1663f23a6e6187878686866040518663ffffffff1660e01b81526004016112db9594939291906127f0565b6020604051808303816000875af192505050801561131757506040513d601f19601f8201168201806040525081019061131491906125e0565b60015b6113bc5761132361261a565b806308c379a00361137f575061133761263c565b806113425750611381565b806040517f08c379a000000000000000000000000000000000000000000000000000000000815260040161137691906116d7565b60405180910390fd5b505b6040517f08c379a00000000000000000000000000000000000000000000000000000000081526004016113b39061273e565b60405180910390fd5b63f23a6e6160e01b7bffffffffffffffffffffffffffffffffffffffffffffffffffffffff1916817bffffffffffffffffffffffffffffffffffffffffffffffffffffffff191614611443576040517f08c379a000000000000000000000000000000000000000000000000000000000815260040161143a906127d0565b60405180910390fd5b505b505050505050565b6000604051905090565b600080fd5b600080fd5b600073ffffffffffffffffffffffffffffffffffffffff82169050919050565b600061148c82611461565b9050919050565b61149c81611481565b81146114a757600080fd5b50565b6000813590506114b981611493565b92915050565b6000819050919050565b6114d2816114bf565b81146114dd57600080fd5b50565b6000813590506114ef816114c9565b92915050565b6000806040838503121561150c5761150b611457565b5b600061151a858286016114aa565b925050602061152b858286016114e0565b9150509250929050565b61153e816114bf565b82525050565b60006020820190506115596000830184611535565b92915050565b60007fffffffff0000000000000000000000000000000000000000000000000000000082169050919050565b6115948161155f565b811461159f57600080fd5b50565b6000813590506115b18161158b565b92915050565b6000602082840312156115cd576115cc611457565b5b60006115db848285016115a2565b91505092915050565b60008115159050919050565b6115f9816115e4565b82525050565b600060208201905061161460008301846115f0565b92915050565b6000602082840312156116305761162f611457565b5b600061163e848285016114e0565b91505092915050565b600081519050919050565b600082825260208201905092915050565b60005b83811015611681578082015181840152602081019050611666565b60008484015250505050565b6000601f19601f8301169050919050565b60006116a982611647565b6116b38185611652565b93506116c3818560208601611663565b6116cc8161168d565b840191505092915050565b600060208201905081810360008301526116f1818461169e565b905092915050565b600080fd5b7f4e487b7100000000000000000000000000000000000000000000000000000000600052604160045260246000fd5b6117368261168d565b810181811067ffffffffffffffff82111715611755576117546116fe565b5b80604052505050565b600061176861144d565b9050611774828261172d565b919050565b600067ffffffffffffffff821115611794576117936116fe565b5b602082029050602081019050919050565b600080fd5b60006117bd6117b884611779565b61175e565b905080838252602082019050602084028301858111156117e0576117df6117a5565b5b835b8181101561180957806117f588826114e0565b8452602084019350506020810190506117e2565b5050509392505050565b600082601f830112611828576118276116f9565b5b81356118388482602086016117aa565b91505092915050565b600080fd5b600067ffffffffffffffff821115611861576118606116fe565b5b61186a8261168d565b9050602081019050919050565b82818337600083830152505050565b600061189961189484611846565b61175e565b9050828152602081018484840111156118b5576118b4611841565b5b6118c0848285611877565b509392505050565b600082601f8301126118dd576118dc6116f9565b5b81356118ed848260208601611886565b91505092915050565b600080600080600060a0868803121561191257611911611457565b5b6000611920888289016114aa565b9550506020611931888289016114aa565b945050604086013567ffffffffffffffff8111156119525761195161145c565b5b61195e88828901611813565b935050606086013567ffffffffffffffff81111561197f5761197e61145c565b5b61198b88828901611813565b925050608086013567ffffffffffffffff8111156119ac576119ab61145c565b5b6119b8888289016118c8565b9150509295509295909350565b600067ffffffffffffffff8211156119e0576119df6116fe565b5b602082029050602081019050919050565b6000611a046119ff846119c5565b61175e565b90508083825260208201905060208402830185811115611a2757611a266117a5565b5b835b81811015611a505780611a3c88826114aa565b845260208401935050602081019050611a29565b5050509392505050565b600082601f830112611a6f57611a6e6116f9565b5b8135611a7f8482602086016119f1565b91505092915050565b60008060408385031215611a9f57611a9e611457565b5b600083013567ffffffffffffffff811115611abd57611abc61145c565b5b611ac985828601611a5a565b925050602083013567ffffffffffffffff811115611aea57611ae961145c565b5b611af685828601611813565b9150509250929050565b600081519050919050565b600082825260208201905092915050565b6000819050602082019050919050565b611b35816114bf565b82525050565b6000611b478383611b2c565b60208301905092915050565b6000602082019050919050565b6000611b6b82611b00565b611b758185611b0b565b9350611b8083611b1c565b8060005b83811015611bb1578151611b988882611b3b565b9750611ba383611b53565b925050600181019050611b84565b5085935050505092915050565b60006020820190508181036000830152611bd88184611b60565b905092915050565b611be9816115e4565b8114611bf457600080fd5b50565b600081359050611c0681611be0565b92915050565b60008060408385031215611c2357611c22611457565b5b6000611c31858286016114aa565b9250506020611c4285828601611bf7565b9150509250929050565b60008060408385031215611c6357611c62611457565b5b6000611c71858286016114aa565b9250506020611c82858286016114aa565b9150509250929050565b600080600080600060a08688031215611ca857611ca7611457565b5b6000611cb6888289016114aa565b9550506020611cc7888289016114aa565b9450506040611cd8888289016114e0565b9350506060611ce9888289016114e0565b925050608086013567ffffffffffffffff811115611d0a57611d0961145c565b5b611d16888289016118c8565b9150509295509295909350565b7f455243313135353a2062616c616e636520717565727920666f7220746865207a60008201527f65726f2061646472657373000000000000000000000000000000000000000000602082015250565b6000611d7f602b83611652565b9150611d8a82611d23565b604082019050919050565b60006020820190508181036000830152611dae81611d72565b9050919050565b600081905092915050565b7f68747470733a2f2f697066732e696f2f697066732f62616679626569686a6a6b60008201527f77647278786a6e757765766c7174716d683369656763616463333273696f347760208201527f6d6f37627632676266333471733334612f000000000000000000000000000000604082015250565b6000611e42605183611db5565b9150611e4d82611dc0565b605182019050919050565b6000611e6382611647565b611e6d8185611db5565b9350611e7d818560208601611663565b80840191505092915050565b7f2e6a736f6e000000000000000000000000000000000000000000000000000000600082015250565b6000611ebf600583611db5565b9150611eca82611e89565b600582019050919050565b6000611ee082611e35565b9150611eec8284611e58565b9150611ef782611eb2565b915081905092915050565b7f455243313135353a207472616e736665722063616c6c6572206973206e6f742060008201527f6f776e6572206e6f7220617070726f7665640000000000000000000000000000602082015250565b6000611f5e603283611652565b9150611f6982611f02565b604082019050919050565b60006020820190508181036000830152611f8d81611f51565b9050919050565b7f455243313135353a206163636f756e747320616e6420696473206c656e67746860008201527f206d69736d617463680000000000000000000000000000000000000000000000602082015250565b6000611ff0602983611652565b9150611ffb82611f94565b604082019050919050565b6000602082019050818103600083015261201f81611fe3565b9050919050565b7f4e487b7100000000000000000000000000000000000000000000000000000000600052603260045260246000fd5b7f4e487b7100000000000000000000000000000000000000000000000000000000600052601160045260246000fd5b600061208f826114bf565b91507fffffffffffffffffffffffffffffffffffffffffffffffffffffffffffffffff82036120c1576120c0612055565b5b600182019050919050565b7f455243313135353a2073657474696e6720617070726f76616c2073746174757360008201527f20666f722073656c660000000000000000000000000000000000000000000000602082015250565b6000612128602983611652565b9150612133826120cc565b604082019050919050565b600060208201905081810360008301526121578161211b565b9050919050565b7f455243313135353a2063616c6c6572206973206e6f74206f776e6572206e6f7260008201527f20617070726f7665640000000000000000000000000000000000000000000000602082015250565b60006121ba602983611652565b91506121c58261215e565b604082019050919050565b600060208201905081810360008301526121e9816121ad565b9050919050565b7f4e487b7100000000000000000000000000000000000000000000000000000000600052601260045260246000fd5b600061222a826114bf565b9150612235836114bf565b925082612245576122446121f0565b5b828204905092915050565b600061225b826114bf565b9150612266836114bf565b925082820390508181111561227e5761227d612055565b5b92915050565b600061228f826114bf565b915061229a836114bf565b9250826122aa576122a96121f0565b5b828206905092915050565b60006122c0826114bf565b91506122cb836114bf565b92508282019050808211156122e3576122e2612055565b5b92915050565b7f455243313135353a2069647320616e6420616d6f756e7473206c656e6774682060008201527f6d69736d61746368000000000000000000000000000000000000000000000000602082015250565b6000612345602883611652565b9150612350826122e9565b604082019050919050565b6000602082019050818103600083015261237481612338565b9050919050565b7f455243313135353a207472616e7366657220746f20746865207a65726f20616460008201527f6472657373000000000000000000000000000000000000000000000000000000602082015250565b60006123d7602583611652565b91506123e28261237b565b604082019050919050565b60006020820190508181036000830152612406816123ca565b9050919050565b7f455243313135353a20696e73756666696369656e742062616c616e636520666f60008201527f72207472616e7366657200000000000000000000000000000000000000000000602082015250565b6000612469602a83611652565b91506124748261240d565b604082019050919050565b600060208201905081810360008301526124988161245c565b9050919050565b600060408201905081810360008301526124b98185611b60565b905081810360208301526124cd8184611b60565b90509392505050565b60006040820190506124eb6000830185611535565b6124f86020830184611535565b9392505050565b61250881611481565b82525050565b600081519050919050565b600082825260208201905092915050565b60006125358261250e565b61253f8185612519565b935061254f818560208601611663565b6125588161168d565b840191505092915050565b600060a08201905061257860008301886124ff565b61258560208301876124ff565b81810360408301526125978186611b60565b905081810360608301526125ab8185611b60565b905081810360808301526125bf818461252a565b90509695505050505050565b6000815190506125da8161158b565b92915050565b6000602082840312156125f6576125f5611457565b5b6000612604848285016125cb565b91505092915050565b60008160e01c9050919050565b600060033d11156126395760046000803e61263660005161260d565b90505b90565b600060443d106126c95761264e61144d565b60043d036004823e80513d602482011167ffffffffffffffff821117156126765750506126c9565b808201805167ffffffffffffffff81111561269457505050506126c9565b80602083010160043d0385018111156126b15750505050506126c9565b6126c08260200185018661172d565b82955050505050505b90565b7f455243313135353a207472616e7366657220746f206e6f6e204552433131353560008201527f526563656976657220696d706c656d656e746572000000000000000000000000602082015250565b6000612728603483611652565b9150612733826126cc565b604082019050919050565b600060208201905081810360008301526127578161271b565b9050919050565b7f455243313135353a204552433131353552656365697665722072656a6563746560008201527f6420746f6b656e73000000000000000000000000000000000000000000000000602082015250565b60006127ba602883611652565b91506127c58261275e565b604082019050919050565b600060208201905081810360008301526127e9816127ad565b9050919050565b600060a08201905061280560008301886124ff565b61281260208301876124ff565b61281f6040830186611535565b61282c6060830185611535565b818103608083015261283e818461252a565b9050969550505050505056fea2646970667358221220b2749e4640bec20b5ae821b717c4bdd67e1669a1f5d5c8d97e38a54197341daf64736f6c6343000811003368747470733a2f2f697066732e696f2f697066732f62616679626569686a6a6b77647278786a6e757765766c7174716d683369656763616463333273696f34776d6f37627632676266333471733334612f7b69647d2e6a736f6e",
  "immutableReferences": {},
  "source": "// SPDX-License-Identifier: MIT\npragma solidity ^0.8.0;\n\nimport \"@openzeppelin/contracts/token/ERC1155/ERC1155.sol\";\nimport \"@openzeppelin/contracts/utils/Strings.sol\";\n\ncontract rockPaperMetaedu is ERC1155 {\n    uint256 public constant Rock = 1;\n    uint256 public constant Paper = 2;\n    uint256 public constant Metaedu = 3;\n\n    constructor() ERC1155(\"https://ipfs.io/ipfs/bafybeihjjkwdrxxjnuwevlqtqmh3iegcadc32sio4wmo7bv2gbf34qs34a/{id}.json\") {\n        _mint(msg.sender, Rock, 1, \"\");\n        _mint(msg.sender, Paper, 1, \"\");\n        _mint(msg.sender, Metaedu, 1, \"\");\n    }\n\n    function uri(uint256 _tokenid) override public pure returns (string memory) {\n        return string(\n            abi.encodePacked(\n                \"https://ipfs.io/ipfs/bafybeihjjkwdrxxjnuwevlqtqmh3iegcadc32sio4wmo7bv2gbf34qs34a/\",\n                Strings.toString(_tokenid),\".json\"\n            )\n        );\n    }\n}",
  "sourcePath": "/Users/renakaagusta/Documents/TA/project/NFT-Marketplace/1155/contracts/1155.sol",
  "compiler": {
    "name": "solc",
    "version": "0.8.17+commit.8df45f5f.Emscripten.clang"
  },
  "schemaVersion": "3.4.10",
  "updatedAt": "2023-01-23T11:51:49.291Z",
  "devdoc": {
    "kind": "dev",
    "methods": {
      "balanceOf(address,uint256)": {
        "details": "See {IERC1155-balanceOf}. Requirements: - `account` cannot be the zero address."
      },
      "balanceOfBatch(address[],uint256[])": {
        "details": "See {IERC1155-balanceOfBatch}. Requirements: - `accounts` and `ids` must have the same length."
      },
      "isApprovedForAll(address,address)": {
        "details": "See {IERC1155-isApprovedForAll}."
      },
      "safeBatchTransferFrom(address,address,uint256[],uint256[],bytes)": {
        "details": "See {IERC1155-safeBatchTransferFrom}."
      },
      "safeTransferFrom(address,address,uint256,uint256,bytes)": {
        "details": "See {IERC1155-safeTransferFrom}."
      },
      "setApprovalForAll(address,bool)": {
        "details": "See {IERC1155-setApprovalForAll}."
      },
      "supportsInterface(bytes4)": {
        "details": "See {IERC165-supportsInterface}."
      }
    },
    "version": 1
  },
  "userdoc": {
    "kind": "user",
    "methods": {},
    "version": 1
  }
}